      {
        "actionId": "1755051813383.2622",
        "chainId": "0xa",
        "id": "827f8db0-77ec-11f0-9079-29c2b8190c84",
        "networkClientId": "002d2758-f0b6-49fe-b561-ba465d17bbc9",
        "origin": "metamask",
        "status": "confirmed",
        "time": 1755051813387,
        "txParams": {
          "from": "0x30e8ccad5a980bdf30447f8c2c48e70989d9d294",
          "data": "0x3ce33bff00000000000000000000000000000000000000000000000000000000000000800000000000000000000000000b2c639c533813f4aa9d7837caf62653d097ff8500000000000000000000000000000000000000000000000000000000002dc6c000000000000000000000000000000000000000000000000000000000000000c0000000000000000000000000000000000000000000000000000000000000000d6c6966694164617074657256320000000000000000000000000000000000000000000000000000000000000000000000000000000000000000000000000004600000000000000000000000001231deb6f5749ef6ce6943a275a1d3e7486f4eae0000000000000000000000001231deb6f5749ef6ce6943a275a1d3e7486f4eae00000000000000000000000000000000000000000000000000000000000000380000000000000000000000000b2c639c533813f4aa9d7837caf62653d097ff85000000000000000000000000000000000000000000000000000000000000000000000000000000000000000000000000000000000000000000000000002d60360000000000000000000000000000000000000000000000000000000000000140000000000000000000000000000000000000000000000000000000000000668a000000000000000000000000716a8b9dd056055c84b7a2ba0a016099465a51870000000000000000000000000000000000000000000000000000000000000304ae3285900000000000000000000000000000000000000000000000000000000000000040000000000000000000000000000000000000000000000000000000000000020063404b3b4f2ed24121f344dbd4439623699b7b89ed7c77b152e7768a0a43df040000000000000000000000000000000000000000000000000000000000000140000000000000000000000000000000000000000000000000000000000000018000000000000000000000000000000000000000000000000000000000000000000000000000000000000000000b2c639c533813f4aa9d7837caf62653d097ff8500000000000000000000000030e8ccad5a980bdf30447f8c2c48e70989d9d29400000000000000000000000000000000000000000000000000000000002d6036000000000000000000000000000000000000000000000000000000000000003800000000000000000000000000000000000000000000000000000000000000000000000000000000000000000000000000000000000000000000000000000000000000000000000000000000000000000000000000000000000000000000000572656c6179000000000000000000000000000000000000000000000000000000000000000000000000000000000000000000000000000000000000000000000f6d6574616d61736b2d627269646765000000000000000000000000000000000083da51a62118077e845ab0641162288348ff27f203069ed942901352019b38a600000000000000000000000030e8ccad5a980bdf30447f8c2c48e70989d9d294000000000000000000000000000000000000000000000000000000000000000000000000000000000000000000000000000000000000000000000000000000800000000000000000000000000000000000000000000000000000000000000041d9455d6ad8435ee6c1561241f9aed2a1e85ebc0a5dbccfda9a94458c4be1f7cd70e18d50b65cf1a0b71230b9b5650874ff1c58133758d2ef0d66425e3b8a9b041c0000000000000000000000000000000000000000000000000000000000000000000000000000000000000000000000000000000000000000000000ac37a557b334b9ad8e28218bf6e4c80540ff6b01357642624ef92e585cd38bab1820d9c8c8547b893452cad63ba52a61121667fd30eae8334c6d000617a7866b1b",
          "gas": "0x3f18a",
          "gasLimit": "0x3f18a",
          "nonce": "0x29",
          "to": "0xb90357f2b86dbfd59c3502215d4060f71df8ca0e",
          "value": "0x0",
          "maxFeePerGas": "0x18ade",
          "maxPriorityFeePerGas": "0x186a0",
          "type": "0x2"
        },
        "type": "bridge",
        "userEditedGasLimit": false,
        "verifiedOnBlockchain": true,
        "gasLimitNoBuffer": "0x3f18a",
        "defaultGasEstimates": {
          "gas": "0x3f18a",
          "maxFeePerGas": "0x194c4",
          "maxPriorityFeePerGas": "0x186a0",
          "estimateType": "medium"
        },
        "userFeeLevel": "medium",
        "layer1GasFee": "0x057c394445",
        "sendFlowHistory": [],
        "r": "0x7e407d859bacd9373ef2ebeaded98127ec042ba733fab33702a03770c73e96c1",
        "s": "0x17405d9bf69ac1aea79be3ec008a9e7d46c32f5988b069ccff30db9d751a1e8b",
        "v": "0x0",
        "rawTx": "0x02f905f00a29830186a0830194c48303f18a94b90357f2b86dbfd59c3502215d4060f71df8ca0e80b905853ce33bff00000000000000000000000000000000000000000000000000000000000000800000000000000000000000000b2c639c533813f4aa9d7837caf62653d097ff8500000000000000000000000000000000000000000000000000000000002dc6c000000000000000000000000000000000000000000000000000000000000000c0000000000000000000000000000000000000000000000000000000000000000d6c6966694164617074657256320000000000000000000000000000000000000000000000000000000000000000000000000000000000000000000000000004600000000000000000000000001231deb6f5749ef6ce6943a275a1d3e7486f4eae0000000000000000000000001231deb6f5749ef6ce6943a275a1d3e7486f4eae00000000000000000000000000000000000000000000000000000000000000380000000000000000000000000b2c639c533813f4aa9d7837caf62653d097ff85000000000000000000000000000000000000000000000000000000000000000000000000000000000000000000000000000000000000000000000000002d60360000000000000000000000000000000000000000000000000000000000000140000000000000000000000000000000000000000000000000000000000000668a000000000000000000000000716a8b9dd056055c84b7a2ba0a016099465a51870000000000000000000000000000000000000000000000000000000000000304ae3285900000000000000000000000000000000000000000000000000000000000000040000000000000000000000000000000000000000000000000000000000000020063404b3b4f2ed24121f344dbd4439623699b7b89ed7c77b152e7768a0a43df040000000000000000000000000000000000000000000000000000000000000140000000000000000000000000000000000000000000000000000000000000018000000000000000000000000000000000000000000000000000000000000000000000000000000000000000000b2c639c533813f4aa9d7837caf62653d097ff8500000000000000000000000030e8ccad5a980bdf30447f8c2c48e70989d9d29400000000000000000000000000000000000000000000000000000000002d6036000000000000000000000000000000000000000000000000000000000000003800000000000000000000000000000000000000000000000000000000000000000000000000000000000000000000000000000000000000000000000000000000000000000000000000000000000000000000000000000000000000000000000572656c6179000000000000000000000000000000000000000000000000000000000000000000000000000000000000000000000000000000000000000000000f6d6574616d61736b2d627269646765000000000000000000000000000000000083da51a62118077e845ab0641162288348ff27f203069ed942901352019b38a600000000000000000000000030e8ccad5a980bdf30447f8c2c48e70989d9d294000000000000000000000000000000000000000000000000000000000000000000000000000000000000000000000000000000000000000000000000000000800000000000000000000000000000000000000000000000000000000000000041d9455d6ad8435ee6c1561241f9aed2a1e85ebc0a5dbccfda9a94458c4be1f7cd70e18d50b65cf1a0b71230b9b5650874ff1c58133758d2ef0d66425e3b8a9b041c0000000000000000000000000000000000000000000000000000000000000000000000000000000000000000000000000000000000000000000000ac37a557b334b9ad8e28218bf6e4c80540ff6b01357642624ef92e585cd38bab1820d9c8c8547b893452cad63ba52a61121667fd30eae8334c6d000617a7866b1bc080a07e407d859bacd9373ef2ebeaded98127ec042ba733fab33702a03770c73e96c1a017405d9bf69ac1aea79be3ec008a9e7d46c32f5988b069ccff30db9d751a1e8b",
        "gasFeeEstimates": {
          "type": "fee-market",
          "low": {
            "maxFeePerGas": "0x18974",
            "maxPriorityFeePerGas": "0x186a0"
          },
          "medium": {
            "maxFeePerGas": "0x18ade",
            "maxPriorityFeePerGas": "0x186a0"
          },
          "high": {
            "maxFeePerGas": "0x194c4",
            "maxPriorityFeePerGas": "0x186a0"
          }
        },
        "gasFeeEstimatesLoaded": true,
        "hash": "0x30d07d28c3e96fd00aa505acb0174933d64f19288e1a81524f6a2d8fc563893b",
        "submittedTime": 1755051813825,
        "baseFeePerGas": "0x16a",
        "blockTimestamp": "0x689bf727",
        "txReceipt": {
          "blockHash": "0x2c5fdc7208a9286bb59ff0a3048fd1c4fee76caed3f7a6a804ac5ddb58b609cf",
          "blockNumber": "0x8540eb7",
          "contractAddress": null,
          "cumulativeGasUsed": "0x52a209",
          "effectiveGasPrice": "0x1880a",
          "from": "0x30e8ccad5a980bdf30447f8c2c48e70989d9d294",
          "gasUsed": "0x2c92a",
          "l1BaseFeeScalar": "0x146b",
          "l1BlobBaseFee": "0x1",
          "l1BlobBaseFeeScalar": "0xf79c5",
          "l1Fee": "0x625ef7bbe",
          "l1GasPrice": "0x28d32e31",
          "l1GasUsed": "0x1ccf",
          "logs": [
            {
              "address": "0x0b2c639c533813f4aa9d7837caf62653d097ff85",
              "blockHash": "0x2c5fdc7208a9286bb59ff0a3048fd1c4fee76caed3f7a6a804ac5ddb58b609cf",
              "blockNumber": "0x8540eb7",
              "data": "0x00000000000000000000000000000000000000000000000000000000002dc6c0",
              "logIndex": "0x15",
              "removed": false,
              "topics": [
                "0xddf252ad1be2c89b69c2b068fc378daa952ba7f163c4a11628f55a4df523b3ef",
                "0x00000000000000000000000030e8ccad5a980bdf30447f8c2c48e70989d9d294",
                "0x0000000000000000000000001d3960155fc7aeec56fed24b109a21fcdf78a21e"
              ],
              "transactionHash": "0x30d07d28c3e96fd00aa505acb0174933d64f19288e1a81524f6a2d8fc563893b",
              "transactionIndex": "0xb"
            },
            {
              "address": "0x0b2c639c533813f4aa9d7837caf62653d097ff85",
              "blockHash": "0x2c5fdc7208a9286bb59ff0a3048fd1c4fee76caed3f7a6a804ac5ddb58b609cf",
              "blockNumber": "0x8540eb7",
              "data": "0x000000000000000000000000000000000000000000000000000000000000668a",
              "logIndex": "0x16",
              "removed": false,
              "topics": [
                "0xddf252ad1be2c89b69c2b068fc378daa952ba7f163c4a11628f55a4df523b3ef",
                "0x0000000000000000000000001d3960155fc7aeec56fed24b109a21fcdf78a21e",
                "0x000000000000000000000000716a8b9dd056055c84b7a2ba0a016099465a5187"
              ],
              "transactionHash": "0x30d07d28c3e96fd00aa505acb0174933d64f19288e1a81524f6a2d8fc563893b",
              "transactionIndex": "0xb"
            },
            {
              "address": "0x1d3960155fc7aeec56fed24b109a21fcdf78a21e",
              "blockHash": "0x2c5fdc7208a9286bb59ff0a3048fd1c4fee76caed3f7a6a804ac5ddb58b609cf",
              "blockNumber": "0x8540eb7",
              "data": "0x0000000000000000000000000b2c639c533813f4aa9d7837caf62653d097ff85000000000000000000000000716a8b9dd056055c84b7a2ba0a016099465a5187000000000000000000000000000000000000000000000000000000000000668a",
              "logIndex": "0x17",
              "removed": false,
              "topics": [
                "0x6ded982279c8387ad8a63e73385031a3807c1862e633f06e09d11bcb6e282f60"
              ],
              "transactionHash": "0x30d07d28c3e96fd00aa505acb0174933d64f19288e1a81524f6a2d8fc563893b",
              "transactionIndex": "0xb"
            },
            {
              "address": "0x0b2c639c533813f4aa9d7837caf62653d097ff85",
              "blockHash": "0x2c5fdc7208a9286bb59ff0a3048fd1c4fee76caed3f7a6a804ac5ddb58b609cf",
              "blockNumber": "0x8540eb7",
              "data": "0x00000000000000000000000000000000000000000000000000000000002d6036",
              "logIndex": "0x18",
              "removed": false,
              "topics": [
                "0xddf252ad1be2c89b69c2b068fc378daa952ba7f163c4a11628f55a4df523b3ef",
                "0x0000000000000000000000001d3960155fc7aeec56fed24b109a21fcdf78a21e",
                "0x0000000000000000000000001231deb6f5749ef6ce6943a275a1d3e7486f4eae"
              ],
              "transactionHash": "0x30d07d28c3e96fd00aa505acb0174933d64f19288e1a81524f6a2d8fc563893b",
              "transactionIndex": "0xb"
            },
            {
              "address": "0x0b2c639c533813f4aa9d7837caf62653d097ff85",
              "blockHash": "0x2c5fdc7208a9286bb59ff0a3048fd1c4fee76caed3f7a6a804ac5ddb58b609cf",
              "blockNumber": "0x8540eb7",
              "data": "0x00000000000000000000000000000000000000000000000000000000002d6036",
              "logIndex": "0x19",
              "removed": false,
              "topics": [
                "0xddf252ad1be2c89b69c2b068fc378daa952ba7f163c4a11628f55a4df523b3ef",
                "0x0000000000000000000000001231deb6f5749ef6ce6943a275a1d3e7486f4eae",
                "0x000000000000000000000000f70da97812cb96acdf810712aa562db8dfa3dbef"
              ],
              "transactionHash": "0x30d07d28c3e96fd00aa505acb0174933d64f19288e1a81524f6a2d8fc563893b",
              "transactionIndex": "0xb"
            },
            {
              "address": "0x1231deb6f5749ef6ce6943a275a1d3e7486f4eae",
              "blockHash": "0x2c5fdc7208a9286bb59ff0a3048fd1c4fee76caed3f7a6a804ac5ddb58b609cf",
              "blockNumber": "0x8540eb7",
              "data": "0x000000000000000000000000000000000000000000000000000000000000002063404b3b4f2ed24121f344dbd4439623699b7b89ed7c77b152e7768a0a43df040000000000000000000000000000000000000000000000000000000000000140000000000000000000000000000000000000000000000000000000000000018000000000000000000000000000000000000000000000000000000000000000000000000000000000000000000b2c639c533813f4aa9d7837caf62653d097ff8500000000000000000000000030e8ccad5a980bdf30447f8c2c48e70989d9d29400000000000000000000000000000000000000000000000000000000002d6036000000000000000000000000000000000000000000000000000000000000003800000000000000000000000000000000000000000000000000000000000000000000000000000000000000000000000000000000000000000000000000000000000000000000000000000000000000000000000000000000000000000000000572656c6179000000000000000000000000000000000000000000000000000000000000000000000000000000000000000000000000000000000000000000000f6d6574616d61736b2d6272696467650000000000000000000000000000000000",
              "logIndex": "0x1a",
              "removed": false,
              "topics": [
                "0xcba69f43792f9f399347222505213b55af8e0b0b54b893085c2e27ecbe1644f1"
              ],
              "transactionHash": "0x30d07d28c3e96fd00aa505acb0174933d64f19288e1a81524f6a2d8fc563893b",
              "transactionIndex": "0xb"
            },
            {
              "address": "0x1d3960155fc7aeec56fed24b109a21fcdf78a21e",
              "blockHash": "0x2c5fdc7208a9286bb59ff0a3048fd1c4fee76caed3f7a6a804ac5ddb58b609cf",
              "blockNumber": "0x8540eb7",
              "data": "0x00000000000000000000000030e8ccad5a980bdf30447f8c2c48e70989d9d2940000000000000000000000001231deb6f5749ef6ce6943a275a1d3e7486f4eae00000000000000000000000000000000000000000000000000000000000000380000000000000000000000000b2c639c533813f4aa9d7837caf62653d097ff85000000000000000000000000000000000000000000000000000000000000000000000000000000000000000000000000000000000000000000000000002d6036",
              "logIndex": "0x1b",
              "removed": false,
              "topics": [
                "0x831bac9533a2034226daa21109dbd4f887674f0fe4877e1a8b35b3ffe1bdce76"
              ],
              "transactionHash": "0x30d07d28c3e96fd00aa505acb0174933d64f19288e1a81524f6a2d8fc563893b",
              "transactionIndex": "0xb"
            }
          ],
          "logsBloom": "0x00002000000000000000000000000000000000080000000000000000000004800000000000000000000000000000000000000000000800000000000000000000000000000000002000000008000000000004000000000000000000000000000004000000000000000000000000000000000008022000000000000010000000000000000010000010000400000002000000000000000000000000000002000008000000020010000000000000080000000000000000000000004000022000000008001022000000000000000000000000000000000000000000020000000008000004000000000000000000800000000000000000000000004000000000000000",
          "status": "0x1",
          "to": "0xb90357f2b86dbfd59c3502215d4060f71df8ca0e",
          "transactionHash": "0x30d07d28c3e96fd00aa505acb0174933d64f19288e1a81524f6a2d8fc563893b",
          "transactionIndex": "0xb",
          "type": "0x2"
        }
      }
