      {
        "assetsFiatValues": {
          "sending": "4.151",
          "receiving": "4.03094748425653922043996"
        },
        "batchId": "0x3b578572803f4900bb7d84c7f504803f",
        "chainId": "0x38",
        "disableGasBuffer": true,
        "id": "93593690-77ec-11f0-90d4-29c2b8190c84",
        "networkClientId": "3ffcd7b7-40e9-4fd4-a929-d67c85429d54",
        "origin": "metamask",
        "status": "confirmed",
        "time": 1755051841657,
        "txParams": {
          "from": "0x30e8ccad5a980bdf30447f8c2c48e70989d9d294",
          "data": "0x5f575529000000000000000000000000000000000000000000000000000000000000008000000000000000000000000000000000000000000000000000000000000000000000000000000000000000000000000000000000000000000011c37937e0800000000000000000000000000000000000000000000000000000000000000000c0000000000000000000000000000000000000000000000000000000000000000430785632000000000000000000000000000000000000000000000000000000000000000000000000000000000000000000000000000000000000000000000580000000000000000000000000000000000000000000000000000000000000000000000000000000000000000055d398326f99059ff775485246999027b319795500000000000000000000000000000000000000000000000000119baee0ab040000000000000000000000000000000000000000000000000037f61a5938f268540000000000000000000000000000000000000000000000000000000000000120000000000000000000000000000000000000000000000000000027ca57357c00000000000000000000000000b28da7bc87a9dd1e60849aa7fcb5da24ea913c42000000000000000000000000000000000000000000000000000000000000000000000000000000000000000000000000000000000000000000000000000004442213bc0b000000000000000000000000653b40ab9dd1d1b42845f67f2be617b2445b7ea5000000000000000000000000000000000000000000000000000000000000000000000000000000000000000000000000000000000000000000119baee0ab0400000000000000000000000000653b40ab9dd1d1b42845f67f2be617b2445b7ea500000000000000000000000000000000000000000000000000000000000000a000000000000000000000000000000000000000000000000000000000000003641fff991f00000000000000000000000000000000000000000000000000000000000000000000000000000000000000000000000000000000000000000000000000000000000000000000000000000000000000000000000000000000000000000000000000000000000000000000000000000000000000000000000000000000000000a01750509ce10f3707117883f30000000000000000000000000000000000000000000000000000000000000000000000000000000000000000000000000000000200000000000000000000000000000000000000000000000000000000000000400000000000000000000000000000000000000000000000000000000000000180000000000000000000000000000000000000000000000000000000000000010438c9c147000000000000000000000000eeeeeeeeeeeeeeeeeeeeeeeeeeeeeeeeeeeeeeee0000000000000000000000000000000000000000000000000000000000002710000000000000000000000000bb4cdb9cbd36b01bd1cbaebf2de08d9173bc095c000000000000000000000000000000000000000000000000000000000000000400000000000000000000000000000000000000000000000000000000000000a00000000000000000000000000000000000000000000000000000000000000024d0e30db00000000000000000000000000000000000000000000000000000000000000000000000000000000000000000000000000000000000000000000000000000000000000000000000000000000000000000000000000000000000000000000000000000000000000000000000000000000000000000000000e48d68a156000000000000000000000000c590175e458b83680867afd273527ff58f74c02b00000000000000000000000000000000000000000000000000000000000027100000000000000000000000000000000000000000000000000000000000000080000000000000000000000000000000000000000000000000388849a34696ce10000000000000000000000000000000000000000000000000000000000000002cbb4cdb9cbd36b01bd1cbaebf2de08d9173bc095c0000006455d398326f99059ff775485246999027b31979550000000000000000000000000000000000000000000000000000000000000000000000000000000000000000000000000000000000000000000000000000000000000000000000000000000000000000000000000000000000000000000000000000000000000000329857879385075edc30a93ee810fb7f9831f0d9d8d89bd15904fd57aecdf59e09bad9745ae3e91d7177a283674ea39f1c88cf46139391959eff4286e5cdd6dc1c",
          "gas": "0x459c5",
          "gasLimit": "0x459c5",
          "nonce": "0x9",
          "to": "0x1a1ec25dc08e98e5e93f1104b5e5cdd298707d31",
          "value": "0x11c37937e08000",
          "maxFeePerGas": "0x5f5e100",
          "maxPriorityFeePerGas": "0x5f5e100",
          "type": "0x2"
        },
        "type": "swap",
        "userEditedGasLimit": false,
        "verifiedOnBlockchain": true,
        "gasLimitNoBuffer": "0x459c5",
        "defaultGasEstimates": {
          "gas": "0x459c5",
          "maxFeePerGas": "0x5f5e100",
          "maxPriorityFeePerGas": "0x5f5e100",
          "estimateType": "medium"
        },
        "userFeeLevel": "medium",
        "sendFlowHistory": [],
        "gasFeeEstimates": {
          "type": "fee-market",
          "low": {
            "maxFeePerGas": "0x5f5e100",
            "maxPriorityFeePerGas": "0x5f5e100"
          },
          "medium": {
            "maxFeePerGas": "0x5f5e100",
            "maxPriorityFeePerGas": "0x5f5e100"
          },
          "high": {
            "maxFeePerGas": "0x5f5e100",
            "maxPriorityFeePerGas": "0x5f5e100"
          }
        },
        "gasFeeEstimatesLoaded": true,
        "r": "0xc189f44fbfacb4e34bfb5f14b60f3583653c69e0c258ce4694270a124bdb386c",
        "s": "0x442790ba77954ec8d29062c4681f01c45956856e78f893be892f66639144e770",
        "v": "0x1",
        "rawTx": "0x02f9071938098405f5e1008405f5e100830459c5941a1ec25dc08e98e5e93f1104b5e5cdd298707d318711c37937e08000b906a55f575529000000000000000000000000000000000000000000000000000000000000008000000000000000000000000000000000000000000000000000000000000000000000000000000000000000000000000000000000000000000011c37937e0800000000000000000000000000000000000000000000000000000000000000000c0000000000000000000000000000000000000000000000000000000000000000430785632000000000000000000000000000000000000000000000000000000000000000000000000000000000000000000000000000000000000000000000580000000000000000000000000000000000000000000000000000000000000000000000000000000000000000055d398326f99059ff775485246999027b319795500000000000000000000000000000000000000000000000000119baee0ab040000000000000000000000000000000000000000000000000037f61a5938f268540000000000000000000000000000000000000000000000000000000000000120000000000000000000000000000000000000000000000000000027ca57357c00000000000000000000000000b28da7bc87a9dd1e60849aa7fcb5da24ea913c42000000000000000000000000000000000000000000000000000000000000000000000000000000000000000000000000000000000000000000000000000004442213bc0b000000000000000000000000653b40ab9dd1d1b42845f67f2be617b2445b7ea5000000000000000000000000000000000000000000000000000000000000000000000000000000000000000000000000000000000000000000119baee0ab0400000000000000000000000000653b40ab9dd1d1b42845f67f2be617b2445b7ea500000000000000000000000000000000000000000000000000000000000000a000000000000000000000000000000000000000000000000000000000000003641fff991f00000000000000000000000000000000000000000000000000000000000000000000000000000000000000000000000000000000000000000000000000000000000000000000000000000000000000000000000000000000000000000000000000000000000000000000000000000000000000000000000000000000000000a01750509ce10f3707117883f30000000000000000000000000000000000000000000000000000000000000000000000000000000000000000000000000000000200000000000000000000000000000000000000000000000000000000000000400000000000000000000000000000000000000000000000000000000000000180000000000000000000000000000000000000000000000000000000000000010438c9c147000000000000000000000000eeeeeeeeeeeeeeeeeeeeeeeeeeeeeeeeeeeeeeee0000000000000000000000000000000000000000000000000000000000002710000000000000000000000000bb4cdb9cbd36b01bd1cbaebf2de08d9173bc095c000000000000000000000000000000000000000000000000000000000000000400000000000000000000000000000000000000000000000000000000000000a00000000000000000000000000000000000000000000000000000000000000024d0e30db00000000000000000000000000000000000000000000000000000000000000000000000000000000000000000000000000000000000000000000000000000000000000000000000000000000000000000000000000000000000000000000000000000000000000000000000000000000000000000000000e48d68a156000000000000000000000000c590175e458b83680867afd273527ff58f74c02b00000000000000000000000000000000000000000000000000000000000027100000000000000000000000000000000000000000000000000000000000000080000000000000000000000000000000000000000000000000388849a34696ce10000000000000000000000000000000000000000000000000000000000000002cbb4cdb9cbd36b01bd1cbaebf2de08d9173bc095c0000006455d398326f99059ff775485246999027b31979550000000000000000000000000000000000000000000000000000000000000000000000000000000000000000000000000000000000000000000000000000000000000000000000000000000000000000000000000000000000000000000000000000000000000000329857879385075edc30a93ee810fb7f9831f0d9d8d89bd15904fd57aecdf59e09bad9745ae3e91d7177a283674ea39f1c88cf46139391959eff4286e5cdd6dc1cc001a0c189f44fbfacb4e34bfb5f14b60f3583653c69e0c258ce4694270a124bdb386ca0442790ba77954ec8d29062c4681f01c45956856e78f893be892f66639144e770",
        "hash": "0x3d475159532782fb357626f50661d4ab5c9a8556ca35b8adb56d84893030b0e7",
        "submittedTime": 1755051847411,
        "preTxBalance": "0x273d00e9d9bf83",
        "baseFeePerGas": "0x0",
        "blockTimestamp": "0x689bf743",
        "txReceipt": {
          "blockHash": "0xa7ff7246495eef443c221d6b8c42e364b397af19960bf20bbdc3a44b3e82cbdf",
          "blockNumber": "0x36bee4a",
          "contractAddress": null,
          "cumulativeGasUsed": "0x1a3d2e",
          "effectiveGasPrice": "0x5f5e100",
          "from": "0x30e8ccad5a980bdf30447f8c2c48e70989d9d294",
          "gasUsed": "0x3396e",
          "logs": [
            {
              "address": "0xbb4cdb9cbd36b01bd1cbaebf2de08d9173bc095c",
              "topics": [
                "0xe1fffcc4923d04b559f4d29a8bfc6cda04eb5b0d3c460751c2402c5c5cc9109c",
                "0x000000000000000000000000653b40ab9dd1d1b42845f67f2be617b2445b7ea5"
              ],
              "data": "0x00000000000000000000000000000000000000000000000000119baee0ab0400",
              "blockNumber": "0x36bee4a",
              "transactionHash": "0x3d475159532782fb357626f50661d4ab5c9a8556ca35b8adb56d84893030b0e7",
              "transactionIndex": "0x9",
              "blockHash": "0xa7ff7246495eef443c221d6b8c42e364b397af19960bf20bbdc3a44b3e82cbdf",
              "logIndex": "0x29",
              "removed": false
            },
            {
              "address": "0x55d398326f99059ff775485246999027b3197955",
              "topics": [
                "0xddf252ad1be2c89b69c2b068fc378daa952ba7f163c4a11628f55a4df523b3ef",
                "0x00000000000000000000000047a90a2d92a8367a91efa1906bfc8c1e05bf10c4",
                "0x000000000000000000000000c590175e458b83680867afd273527ff58f74c02b"
              ],
              "data": "0x00000000000000000000000000000000000000000000000039191d1ec226b5ee",
              "blockNumber": "0x36bee4a",
              "transactionHash": "0x3d475159532782fb357626f50661d4ab5c9a8556ca35b8adb56d84893030b0e7",
              "transactionIndex": "0x9",
              "blockHash": "0xa7ff7246495eef443c221d6b8c42e364b397af19960bf20bbdc3a44b3e82cbdf",
              "logIndex": "0x2a",
              "removed": false
            },
            {
              "address": "0xbb4cdb9cbd36b01bd1cbaebf2de08d9173bc095c",
              "topics": [
                "0xddf252ad1be2c89b69c2b068fc378daa952ba7f163c4a11628f55a4df523b3ef",
                "0x000000000000000000000000653b40ab9dd1d1b42845f67f2be617b2445b7ea5",
                "0x00000000000000000000000047a90a2d92a8367a91efa1906bfc8c1e05bf10c4"
              ],
              "data": "0x00000000000000000000000000000000000000000000000000119baee0ab0400",
              "blockNumber": "0x36bee4a",
              "transactionHash": "0x3d475159532782fb357626f50661d4ab5c9a8556ca35b8adb56d84893030b0e7",
              "transactionIndex": "0x9",
              "blockHash": "0xa7ff7246495eef443c221d6b8c42e364b397af19960bf20bbdc3a44b3e82cbdf",
              "logIndex": "0x2b",
              "removed": false
            },
            {
              "address": "0x47a90a2d92a8367a91efa1906bfc8c1e05bf10c4",
              "topics": [
                "0xc42079f94a6350d7e6235f29174924f928cc2ac818eb64fed8004e115fbcca67",
                "0x000000000000000000000000653b40ab9dd1d1b42845f67f2be617b2445b7ea5",
                "0x000000000000000000000000c590175e458b83680867afd273527ff58f74c02b"
              ],
              "data": "0xffffffffffffffffffffffffffffffffffffffffffffffffc6e6e2e13dd94a1200000000000000000000000000000000000000000000000000119baee0ab0400000000000000000000000000000000000000000008e27d929ef259686697d214000000000000000000000000000000000000000000011ef4926cf3af75544174fffffffffffffffffffffffffffffffffffffffffffffffffffffffffffef96b",
              "blockNumber": "0x36bee4a",
              "transactionHash": "0x3d475159532782fb357626f50661d4ab5c9a8556ca35b8adb56d84893030b0e7",
              "transactionIndex": "0x9",
              "blockHash": "0xa7ff7246495eef443c221d6b8c42e364b397af19960bf20bbdc3a44b3e82cbdf",
              "logIndex": "0x2c",
              "removed": false
            },
            {
              "address": "0xb28da7bc87a9dd1e60849aa7fcb5da24ea913c42",
              "topics": [
                "0x3d0ce9bfc3ed7d6862dbb28b2dea94561fe714a1b4d019aa8af39730d1ad7c3d",
                "0x000000000000000000000000c590175e458b83680867afd273527ff58f74c02b"
              ],
              "data": "0x000000000000000000000000000000000000000000000000000027ca57357c00",
              "blockNumber": "0x36bee4a",
              "transactionHash": "0x3d475159532782fb357626f50661d4ab5c9a8556ca35b8adb56d84893030b0e7",
              "transactionIndex": "0x9",
              "blockHash": "0xa7ff7246495eef443c221d6b8c42e364b397af19960bf20bbdc3a44b3e82cbdf",
              "logIndex": "0x2d",
              "removed": false
            },
            {
              "address": "0x55d398326f99059ff775485246999027b3197955",
              "topics": [
                "0xddf252ad1be2c89b69c2b068fc378daa952ba7f163c4a11628f55a4df523b3ef",
                "0x000000000000000000000000c590175e458b83680867afd273527ff58f74c02b",
                "0x00000000000000000000000030e8ccad5a980bdf30447f8c2c48e70989d9d294"
              ],
              "data": "0x00000000000000000000000000000000000000000000000039191d1ec226b5ee",
              "blockNumber": "0x36bee4a",
              "transactionHash": "0x3d475159532782fb357626f50661d4ab5c9a8556ca35b8adb56d84893030b0e7",
              "transactionIndex": "0x9",
              "blockHash": "0xa7ff7246495eef443c221d6b8c42e364b397af19960bf20bbdc3a44b3e82cbdf",
              "logIndex": "0x2e",
              "removed": false
            },
            {
              "address": "0x1a1ec25dc08e98e5e93f1104b5e5cdd298707d31",
              "topics": [
                "0xbeee1e6e7fe307ddcf84b0a16137a4430ad5e2480fc4f4a8e250ab56ccd7630d",
                "0x83203d0886d1c2c42122151c4282225c18a1e1561f04ae69d57528da4bb99db6",
                "0x00000000000000000000000030e8ccad5a980bdf30447f8c2c48e70989d9d294"
              ],
              "data": "0x",
              "blockNumber": "0x36bee4a",
              "transactionHash": "0x3d475159532782fb357626f50661d4ab5c9a8556ca35b8adb56d84893030b0e7",
              "transactionIndex": "0x9",
              "blockHash": "0xa7ff7246495eef443c221d6b8c42e364b397af19960bf20bbdc3a44b3e82cbdf",
              "logIndex": "0x2f",
              "removed": false
            }
          ],
          "logsBloom": "0x00000000000000000008000000000000000000000000000840000010000000000000000000008000000010000001000000010080000822000000000000002000000000000200200801020008000000008000000002000000000400008000000000000000000000000000000104000001000000000000000000000010000800000000000000000000008000000000000000140001000000000000000000000000000000000000010000000040000000000000000000000000000000024000000000000002000004000000000000000000200000000000000000000000000080000024000000000000000000800000000040000000000000400000000000000000",
          "status": "0x1",
          "to": "0x1a1ec25dc08e98e5e93f1104b5e5cdd298707d31",
          "transactionHash": "0x3d475159532782fb357626f50661d4ab5c9a8556ca35b8adb56d84893030b0e7",
          "transactionIndex": "0x9",
          "type": "0x2"
        },
        "postTxBalance": "0x15664fc0399183"
      }
