{
        "actionId": "1755051774491.4246",
        "chainId": "0xa",
        "id": "6b51de40-77ec-11f0-8f97-29c2b8190c84",
        "networkClientId": "002d2758-f0b6-49fe-b561-ba465d17bbc9",
        "origin": "metamask",
        "status": "confirmed",
        "time": 1755051774500,
        "txParams": {
          "from": "0x30e8ccad5a980bdf30447f8c2c48e70989d9d294",
          "data": "0x5f57552900000000000000000000000000000000000000000000000000000000000000800000000000000000000000000b2c639c533813f4aa9d7837caf62653d097ff8500000000000000000000000000000000000000000000000000000000002dc6c000000000000000000000000000000000000000000000000000000000000000c00000000000000000000000000000000000000000000000000000000000000004307856320000000000000000000000000000000000000000000000000000000000000000000000000000000000000000000000000000000000000000000007800000000000000000000000000b2c639c533813f4aa9d7837caf62653d097ff85000000000000000000000000000000000000000000000000000000000000000000000000000000000000000000000000000000000000000000000000002dc6c00000000000000000000000000000000000000000000000000002421836f5d94400000000000000000000000000000000000000000000000000000000000001200000000000000000000000000000000000000000000000000000053505e40dab00000000000000000000000045d047bfcb1055b9dd531ef9605e8f0b0dc285f3000000000000000000000000000000000000000000000000000000000000000100000000000000000000000000000000000000000000000000000000000006442213bc0b000000000000000000000000d8014f15a920bf9edfdb87159ee10cadc07fcb530000000000000000000000000b2c639c533813f4aa9d7837caf62653d097ff8500000000000000000000000000000000000000000000000000000000002dc6c0000000000000000000000000d8014f15a920bf9edfdb87159ee10cadc07fcb5300000000000000000000000000000000000000000000000000000000000000a000000000000000000000000000000000000000000000000000000000000005641fff991f0000000000000000000000000a2854fbbd9b3ef66f17d47284e7f899b9509330000000000000000000000000eeeeeeeeeeeeeeeeeeeeeeeeeeeeeeeeeeeeeeee00000000000000000000000000000000000000000000000000024d260838303800000000000000000000000000000000000000000000000000000000000000a0f35fb9991844e5e0601c0c3c0000000000000000000000000000000000000000000000000000000000000000000000000000000000000000000000000000000300000000000000000000000000000000000000000000000000000000000000600000000000000000000000000000000000000000000000000000000000000180000000000000000000000000000000000000000000000000000000000000036000000000000000000000000000000000000000000000000000000000000000e4c1fb425e000000000000000000000000d8014f15a920bf9edfdb87159ee10cadc07fcb530000000000000000000000000b2c639c533813f4aa9d7837caf62653d097ff8500000000000000000000000000000000000000000000000000000000002dc6c0000000000000000000000000000000000000000000000000000000000000000000000000000000000000000000000000000000000000000000000000689bf82600000000000000000000000000000000000000000000000000000000000000c000000000000000000000000000000000000000000000000000000000000000000000000000000000000000000000000000000000000000000000000000000000000000000000000000000000000000000000000000000000000001a438c9c1470000000000000000000000000b2c639c533813f4aa9d7837caf62653d097ff8500000000000000000000000000000000000000000000000000000000000027100000000000000000000000004c4af8dbc524681930a27b2f1af5bcc8062e6fb7000000000000000000000000000000000000000000000000000000000000004400000000000000000000000000000000000000000000000000000000000000a000000000000000000000000000000000000000000000000000000000000000c47dc203820000000000000000000000000b2c639c533813f4aa9d7837caf62653d097ff85000000000000000000000000420000000000000000000000000000000000000600000000000000000000000000000000000000000000000000000000002dc6c00000000000000000000000000000000000000000000000000000000000000000000000000000000000000000d8014f15a920bf9edfdb87159ee10cadc07fcb530000000000000000000000005e01d320e95133d80dd59a2191c95728fa69036d0000000000000000000000000000000000000000000000000000000000000000000000000000000000000000000000000000000000000000000000000000000000000000000000000000000000000000000000000000010438c9c147000000000000000000000000420000000000000000000000000000000000000600000000000000000000000000000000000000000000000000000000000027100000000000000000000000004200000000000000000000000000000000000006000000000000000000000000000000000000000000000000000000000000000400000000000000000000000000000000000000000000000000000000000000a000000000000000000000000000000000000000000000000000000000000000242e1a7d4d000000000000000000000000000000000000000000000000000000000000000000000000000000000000000000000000000000000000000000000000000000000000000000000000000000000000000000000000000000000000000000000000000000000000000000000000000000000000000000000000000000000000000000000000000000000000000000000000bc549fc2fe32597e6f62c46e470628b7df6220542b1392ac3bd25ddfe81ae5da0352a89c015bac05b8d61eda6c66773d836fc42ef3d474c03b69caf86e27cd271b",
          "gas": "0x77250",
          "gasLimit": "0x77250",
          "nonce": "0x27",
          "to": "0x9dda6ef3d919c9bc8885d5560999a3640431e8e6",
          "value": "0x0",
          "maxFeePerGas": "0x18ade",
          "maxPriorityFeePerGas": "0x186a0",
          "type": "0x2"
        },
        "type": "swap",
        "userEditedGasLimit": false,
        "verifiedOnBlockchain": true,
        "gasLimitNoBuffer": "0x77250",
        "defaultGasEstimates": {
          "gas": "0x77250",
          "maxFeePerGas": "0x194c4",
          "maxPriorityFeePerGas": "0x186a0",
          "estimateType": "medium"
        },
        "userFeeLevel": "medium",
        "layer1GasFee": "0x06b257bfeb",
        "sendFlowHistory": [],
        "history": [
          {
            "actionId": "1755051774491.4246",
            "chainId": "0xa",
            "id": "6b51de40-77ec-11f0-8f97-29c2b8190c84",
            "networkClientId": "002d2758-f0b6-49fe-b561-ba465d17bbc9",
            "origin": "metamask",
            "status": "unapproved",
            "time": 1755051774500,
            "txParams": {
              "from": "0x30e8ccad5a980bdf30447f8c2c48e70989d9d294",
              "data": "0x5f57552900000000000000000000000000000000000000000000000000000000000000800000000000000000000000000b2c639c533813f4aa9d7837caf62653d097ff8500000000000000000000000000000000000000000000000000000000002dc6c000000000000000000000000000000000000000000000000000000000000000c00000000000000000000000000000000000000000000000000000000000000004307856320000000000000000000000000000000000000000000000000000000000000000000000000000000000000000000000000000000000000000000007800000000000000000000000000b2c639c533813f4aa9d7837caf62653d097ff85000000000000000000000000000000000000000000000000000000000000000000000000000000000000000000000000000000000000000000000000002dc6c00000000000000000000000000000000000000000000000000002421836f5d94400000000000000000000000000000000000000000000000000000000000001200000000000000000000000000000000000000000000000000000053505e40dab00000000000000000000000045d047bfcb1055b9dd531ef9605e8f0b0dc285f3000000000000000000000000000000000000000000000000000000000000000100000000000000000000000000000000000000000000000000000000000006442213bc0b000000000000000000000000d8014f15a920bf9edfdb87159ee10cadc07fcb530000000000000000000000000b2c639c533813f4aa9d7837caf62653d097ff8500000000000000000000000000000000000000000000000000000000002dc6c0000000000000000000000000d8014f15a920bf9edfdb87159ee10cadc07fcb5300000000000000000000000000000000000000000000000000000000000000a000000000000000000000000000000000000000000000000000000000000005641fff991f0000000000000000000000000a2854fbbd9b3ef66f17d47284e7f899b9509330000000000000000000000000eeeeeeeeeeeeeeeeeeeeeeeeeeeeeeeeeeeeeeee00000000000000000000000000000000000000000000000000024d260838303800000000000000000000000000000000000000000000000000000000000000a0f35fb9991844e5e0601c0c3c0000000000000000000000000000000000000000000000000000000000000000000000000000000000000000000000000000000300000000000000000000000000000000000000000000000000000000000000600000000000000000000000000000000000000000000000000000000000000180000000000000000000000000000000000000000000000000000000000000036000000000000000000000000000000000000000000000000000000000000000e4c1fb425e000000000000000000000000d8014f15a920bf9edfdb87159ee10cadc07fcb530000000000000000000000000b2c639c533813f4aa9d7837caf62653d097ff8500000000000000000000000000000000000000000000000000000000002dc6c0000000000000000000000000000000000000000000000000000000000000000000000000000000000000000000000000000000000000000000000000689bf82600000000000000000000000000000000000000000000000000000000000000c000000000000000000000000000000000000000000000000000000000000000000000000000000000000000000000000000000000000000000000000000000000000000000000000000000000000000000000000000000000000001a438c9c1470000000000000000000000000b2c639c533813f4aa9d7837caf62653d097ff8500000000000000000000000000000000000000000000000000000000000027100000000000000000000000004c4af8dbc524681930a27b2f1af5bcc8062e6fb7000000000000000000000000000000000000000000000000000000000000004400000000000000000000000000000000000000000000000000000000000000a000000000000000000000000000000000000000000000000000000000000000c47dc203820000000000000000000000000b2c639c533813f4aa9d7837caf62653d097ff85000000000000000000000000420000000000000000000000000000000000000600000000000000000000000000000000000000000000000000000000002dc6c00000000000000000000000000000000000000000000000000000000000000000000000000000000000000000d8014f15a920bf9edfdb87159ee10cadc07fcb530000000000000000000000005e01d320e95133d80dd59a2191c95728fa69036d0000000000000000000000000000000000000000000000000000000000000000000000000000000000000000000000000000000000000000000000000000000000000000000000000000000000000000000000000000010438c9c147000000000000000000000000420000000000000000000000000000000000000600000000000000000000000000000000000000000000000000000000000027100000000000000000000000004200000000000000000000000000000000000006000000000000000000000000000000000000000000000000000000000000000400000000000000000000000000000000000000000000000000000000000000a000000000000000000000000000000000000000000000000000000000000000242e1a7d4d000000000000000000000000000000000000000000000000000000000000000000000000000000000000000000000000000000000000000000000000000000000000000000000000000000000000000000000000000000000000000000000000000000000000000000000000000000000000000000000000000000000000000000000000000000000000000000000000bc549fc2fe32597e6f62c46e470628b7df6220542b1392ac3bd25ddfe81ae5da0352a89c015bac05b8d61eda6c66773d836fc42ef3d474c03b69caf86e27cd271b",
              "gas": "0x77250",
              "gasLimit": "0x488016",
              "to": "0x9dda6ef3d919c9bc8885d5560999a3640431e8e6",
              "value": "0x0",
              "maxFeePerGas": "0x194c4",
              "maxPriorityFeePerGas": "0x186a0",
              "type": "0x2"
            },
            "type": "swap",
            "userEditedGasLimit": false,
            "verifiedOnBlockchain": false,
            "gasLimitNoBuffer": "0x77250",
            "defaultGasEstimates": {
              "gas": "0x77250",
              "maxFeePerGas": "0x194c4",
              "maxPriorityFeePerGas": "0x186a0",
              "estimateType": "medium"
            },
            "userFeeLevel": "medium",
            "layer1GasFee": "0x06b257bfeb",
            "sendFlowHistory": []
          },
          [
            {
              "op": "replace",
              "path": "/txParams/gasLimit",
              "value": "0x77250",
              "note": "TransactionController#approveTransaction - Transaction approved",
              "timestamp": 1755051774669
            },
            {
              "op": "add",
              "path": "/txParams/nonce",
              "value": "0x27"
            },
            {
              "op": "replace",
              "path": "/status",
              "value": "approved"
            }
          ],
          [
            {
              "op": "replace",
              "path": "/status",
              "value": "signed",
              "note": "TransactionController#approveTransaction - RawTransaction added",
              "timestamp": 1755051774676
            },
            {
              "op": "add",
              "path": "/r",
              "value": "0xa56c86f1ff0ecac8dc776697411e6265927c54485293a06732c0179046e3bb84"
            },
            {
              "op": "add",
              "path": "/s",
              "value": "0x3a4c0b553ecb8c8ec9766024f0b060836bb5da58a02df740470b300cf285021"
            },
            {
              "op": "add",
              "path": "/v",
              "value": "0x0"
            },
            {
              "op": "add",
              "path": "/rawTx",
              "value": "0x02f909100a27830186a0830194c483077250949dda6ef3d919c9bc8885d5560999a3640431e8e680b908a55f57552900000000000000000000000000000000000000000000000000000000000000800000000000000000000000000b2c639c533813f4aa9d7837caf62653d097ff8500000000000000000000000000000000000000000000000000000000002dc6c000000000000000000000000000000000000000000000000000000000000000c00000000000000000000000000000000000000000000000000000000000000004307856320000000000000000000000000000000000000000000000000000000000000000000000000000000000000000000000000000000000000000000007800000000000000000000000000b2c639c533813f4aa9d7837caf62653d097ff85000000000000000000000000000000000000000000000000000000000000000000000000000000000000000000000000000000000000000000000000002dc6c00000000000000000000000000000000000000000000000000002421836f5d94400000000000000000000000000000000000000000000000000000000000001200000000000000000000000000000000000000000000000000000053505e40dab00000000000000000000000045d047bfcb1055b9dd531ef9605e8f0b0dc285f3000000000000000000000000000000000000000000000000000000000000000100000000000000000000000000000000000000000000000000000000000006442213bc0b000000000000000000000000d8014f15a920bf9edfdb87159ee10cadc07fcb530000000000000000000000000b2c639c533813f4aa9d7837caf62653d097ff8500000000000000000000000000000000000000000000000000000000002dc6c0000000000000000000000000d8014f15a920bf9edfdb87159ee10cadc07fcb5300000000000000000000000000000000000000000000000000000000000000a000000000000000000000000000000000000000000000000000000000000005641fff991f0000000000000000000000000a2854fbbd9b3ef66f17d47284e7f899b9509330000000000000000000000000eeeeeeeeeeeeeeeeeeeeeeeeeeeeeeeeeeeeeeee00000000000000000000000000000000000000000000000000024d260838303800000000000000000000000000000000000000000000000000000000000000a0f35fb9991844e5e0601c0c3c0000000000000000000000000000000000000000000000000000000000000000000000000000000000000000000000000000000300000000000000000000000000000000000000000000000000000000000000600000000000000000000000000000000000000000000000000000000000000180000000000000000000000000000000000000000000000000000000000000036000000000000000000000000000000000000000000000000000000000000000e4c1fb425e000000000000000000000000d8014f15a920bf9edfdb87159ee10cadc07fcb530000000000000000000000000b2c639c533813f4aa9d7837caf62653d097ff8500000000000000000000000000000000000000000000000000000000002dc6c0000000000000000000000000000000000000000000000000000000000000000000000000000000000000000000000000000000000000000000000000689bf82600000000000000000000000000000000000000000000000000000000000000c000000000000000000000000000000000000000000000000000000000000000000000000000000000000000000000000000000000000000000000000000000000000000000000000000000000000000000000000000000000000001a438c9c1470000000000000000000000000b2c639c533813f4aa9d7837caf62653d097ff8500000000000000000000000000000000000000000000000000000000000027100000000000000000000000004c4af8dbc524681930a27b2f1af5bcc8062e6fb7000000000000000000000000000000000000000000000000000000000000004400000000000000000000000000000000000000000000000000000000000000a000000000000000000000000000000000000000000000000000000000000000c47dc203820000000000000000000000000b2c639c533813f4aa9d7837caf62653d097ff85000000000000000000000000420000000000000000000000000000000000000600000000000000000000000000000000000000000000000000000000002dc6c00000000000000000000000000000000000000000000000000000000000000000000000000000000000000000d8014f15a920bf9edfdb87159ee10cadc07fcb530000000000000000000000005e01d320e95133d80dd59a2191c95728fa69036d0000000000000000000000000000000000000000000000000000000000000000000000000000000000000000000000000000000000000000000000000000000000000000000000000000000000000000000000000000010438c9c147000000000000000000000000420000000000000000000000000000000000000600000000000000000000000000000000000000000000000000000000000027100000000000000000000000004200000000000000000000000000000000000006000000000000000000000000000000000000000000000000000000000000000400000000000000000000000000000000000000000000000000000000000000a000000000000000000000000000000000000000000000000000000000000000242e1a7d4d000000000000000000000000000000000000000000000000000000000000000000000000000000000000000000000000000000000000000000000000000000000000000000000000000000000000000000000000000000000000000000000000000000000000000000000000000000000000000000000000000000000000000000000000000000000000000000000000bc549fc2fe32597e6f62c46e470628b7df6220542b1392ac3bd25ddfe81ae5da0352a89c015bac05b8d61eda6c66773d836fc42ef3d474c03b69caf86e27cd271bc080a0a56c86f1ff0ecac8dc776697411e6265927c54485293a06732c0179046e3bb84a003a4c0b553ecb8c8ec9766024f0b060836bb5da58a02df740470b300cf285021"
            }
          ],
          [
            {
              "op": "replace",
              "path": "/txParams/maxFeePerGas",
              "value": "0x18ade",
              "note": "TransactionController#approveTransaction - Transaction submitted",
              "timestamp": 1755051774953
            },
            {
              "op": "replace",
              "path": "/status",
              "value": "submitted"
            },
            {
              "op": "add",
              "path": "/gasFeeEstimates",
              "value": {
                "type": "fee-market",
                "low": {
                  "maxFeePerGas": "0x18974",
                  "maxPriorityFeePerGas": "0x186a0"
                },
                "medium": {
                  "maxFeePerGas": "0x18ade",
                  "maxPriorityFeePerGas": "0x186a0"
                },
                "high": {
                  "maxFeePerGas": "0x194c4",
                  "maxPriorityFeePerGas": "0x186a0"
                }
              }
            },
            {
              "op": "add",
              "path": "/gasFeeEstimatesLoaded",
              "value": true
            },
            {
              "op": "add",
              "path": "/hash",
              "value": "0x1458280e5fce2d4606fbb798e8e265560b59f20b3f2a39e10bfcbdd87ddcc4c9"
            },
            {
              "op": "add",
              "path": "/submittedTime",
              "value": 1755051774953
            },
            {
              "op": "add",
              "path": "/preTxBalance",
              "value": "0xe39c0e2d7de7e"
            }
          ],
          [
            {
              "op": "replace",
              "path": "/verifiedOnBlockchain",
              "value": true,
              "note": "PendingTransactionTracker:#onTransactionConfirmed - Transaction confirmed",
              "timestamp": 1755051778346
            },
            {
              "op": "replace",
              "path": "/status",
              "value": "confirmed"
            },
            {
              "op": "add",
              "path": "/baseFeePerGas",
              "value": "0x16a"
            },
            {
              "op": "add",
              "path": "/blockTimestamp",
              "value": "0x689bf701"
            },
            {
              "op": "add",
              "path": "/txReceipt",
              "value": {
                "blockHash": "0x7cf0e721260af530708f840f32b325b3433995acffb38ce128341de2a036fe09",
                "blockNumber": "0x8540ea4",
                "contractAddress": null,
                "cumulativeGasUsed": "0x54c0a4",
                "effectiveGasPrice": "0x1880a",
                "from": "0x30e8ccad5a980bdf30447f8c2c48e70989d9d294",
                "gasUsed": "0x57b05",
                "l1BaseFeeScalar": "0x146b",
                "l1BlobBaseFee": "0x1",
                "l1BlobBaseFeeScalar": "0xf79c5",
                "l1Fee": "0x5f93281dc",
                "l1GasPrice": "0x23066232",
                "l1GasUsed": "0x20a0",
                "logs": [
                  {
                    "address": "0x0b2c639c533813f4aa9d7837caf62653d097ff85",
                    "blockHash": "0x7cf0e721260af530708f840f32b325b3433995acffb38ce128341de2a036fe09",
                    "blockNumber": "0x8540ea4",
                    "data": "0x00000000000000000000000000000000000000000000000000000000002dc6c0",
                    "logIndex": "0x28",
                    "removed": false,
                    "topics": [
                      "0xddf252ad1be2c89b69c2b068fc378daa952ba7f163c4a11628f55a4df523b3ef",
                      "0x00000000000000000000000030e8ccad5a980bdf30447f8c2c48e70989d9d294",
                      "0x0000000000000000000000000a2854fbbd9b3ef66f17d47284e7f899b9509330"
                    ],
                    "transactionHash": "0x1458280e5fce2d4606fbb798e8e265560b59f20b3f2a39e10bfcbdd87ddcc4c9",
                    "transactionIndex": "0xb"
                  },
                  {
                    "address": "0x0b2c639c533813f4aa9d7837caf62653d097ff85",
                    "blockHash": "0x7cf0e721260af530708f840f32b325b3433995acffb38ce128341de2a036fe09",
                    "blockNumber": "0x8540ea4",
                    "data": "0x00000000000000000000000000000000000000000000000000000000002dc6c0",
                    "logIndex": "0x29",
                    "removed": false,
                    "topics": [
                      "0xddf252ad1be2c89b69c2b068fc378daa952ba7f163c4a11628f55a4df523b3ef",
                      "0x0000000000000000000000000a2854fbbd9b3ef66f17d47284e7f899b9509330",
                      "0x000000000000000000000000d8014f15a920bf9edfdb87159ee10cadc07fcb53"
                    ],
                    "transactionHash": "0x1458280e5fce2d4606fbb798e8e265560b59f20b3f2a39e10bfcbdd87ddcc4c9",
                    "transactionIndex": "0xb"
                  },
                  {
                    "address": "0x0b2c639c533813f4aa9d7837caf62653d097ff85",
                    "blockHash": "0x7cf0e721260af530708f840f32b325b3433995acffb38ce128341de2a036fe09",
                    "blockNumber": "0x8540ea4",
                    "data": "0x00000000000000000000000000000000000000000000000000000000002dc6c0",
                    "logIndex": "0x2a",
                    "removed": false,
                    "topics": [
                      "0xddf252ad1be2c89b69c2b068fc378daa952ba7f163c4a11628f55a4df523b3ef",
                      "0x000000000000000000000000d8014f15a920bf9edfdb87159ee10cadc07fcb53",
                      "0x0000000000000000000000005520385bfcf07ec87c4c53a7d8d65595dff69fa4"
                    ],
                    "transactionHash": "0x1458280e5fce2d4606fbb798e8e265560b59f20b3f2a39e10bfcbdd87ddcc4c9",
                    "transactionIndex": "0xb"
                  },
                  {
                    "address": "0x4200000000000000000000000000000000000006",
                    "blockHash": "0x7cf0e721260af530708f840f32b325b3433995acffb38ce128341de2a036fe09",
                    "blockNumber": "0x8540ea4",
                    "data": "0x00000000000000000000000000000000000000000000000000025319132d33c1",
                    "logIndex": "0x2b",
                    "removed": false,
                    "topics": [
                      "0xddf252ad1be2c89b69c2b068fc378daa952ba7f163c4a11628f55a4df523b3ef",
                      "0x0000000000000000000000005520385bfcf07ec87c4c53a7d8d65595dff69fa4",
                      "0x000000000000000000000000d8014f15a920bf9edfdb87159ee10cadc07fcb53"
                    ],
                    "transactionHash": "0x1458280e5fce2d4606fbb798e8e265560b59f20b3f2a39e10bfcbdd87ddcc4c9",
                    "transactionIndex": "0xb"
                  },
                  {
                    "address": "0x5520385bfcf07ec87c4c53a7d8d65595dff69fa4",
                    "blockHash": "0x7cf0e721260af530708f840f32b325b3433995acffb38ce128341de2a036fe09",
                    "blockNumber": "0x8540ea4",
                    "data": "0x00000000000000000000000000000000000000000000000000000000002dc6c000000000000000000000000000000000000000000000000000025319132d33c10000000000000000000000004c4af8dbc524681930a27b2f1af5bcc8062e6fb70000000000000000000000005e01d320e95133d80dd59a2191c95728fa69036d00000000000000000000000000000000000000000000000000000000002dc6c000000000000000000000000000000000000000000000000000000000000002ee",
                    "logIndex": "0x2c",
                    "removed": false,
                    "topics": [
                      "0x0e8e403c2d36126272b08c75823e988381d9dc47f2f0a9a080d95f891d95c469",
                      "0x0000000000000000000000000b2c639c533813f4aa9d7837caf62653d097ff85",
                      "0x0000000000000000000000004200000000000000000000000000000000000006",
                      "0x000000000000000000000000d8014f15a920bf9edfdb87159ee10cadc07fcb53"
                    ],
                    "transactionHash": "0x1458280e5fce2d4606fbb798e8e265560b59f20b3f2a39e10bfcbdd87ddcc4c9",
                    "transactionIndex": "0xb"
                  },
                  {
                    "address": "0x4c4af8dbc524681930a27b2f1af5bcc8062e6fb7",
                    "blockHash": "0x7cf0e721260af530708f840f32b325b3433995acffb38ce128341de2a036fe09",
                    "blockNumber": "0x8540ea4",
                    "data": "0x000000000000000000000000000000000000000000000000000000000000000000000000000000000000000000000000000000000000000000000000002dc6c000000000000000000000000000000000000000000000000000025319132d33c1000000000000000000000000d8014f15a920bf9edfdb87159ee10cadc07fcb530000000000000000000000005e01d320e95133d80dd59a2191c95728fa69036d",
                    "logIndex": "0x2d",
                    "removed": false,
                    "topics": [
                      "0x27c98e911efdd224f4002f6cd831c3ad0d2759ee176f9ee8466d95826af22a1c",
                      "0x0000000000000000000000000b2c639c533813f4aa9d7837caf62653d097ff85",
                      "0x0000000000000000000000004200000000000000000000000000000000000006",
                      "0x000000000000000000000000d8014f15a920bf9edfdb87159ee10cadc07fcb53"
                    ],
                    "transactionHash": "0x1458280e5fce2d4606fbb798e8e265560b59f20b3f2a39e10bfcbdd87ddcc4c9",
                    "transactionIndex": "0xb"
                  },
                  {
                    "address": "0x4200000000000000000000000000000000000006",
                    "blockHash": "0x7cf0e721260af530708f840f32b325b3433995acffb38ce128341de2a036fe09",
                    "blockNumber": "0x8540ea4",
                    "data": "0x00000000000000000000000000000000000000000000000000025319132d33c1",
                    "logIndex": "0x2e",
                    "removed": false,
                    "topics": [
                      "0x7fcf532c15f0a6db0bd6d0e038bea71d30d808c7d98cb3bf7268a95bf5081b65",
                      "0x000000000000000000000000d8014f15a920bf9edfdb87159ee10cadc07fcb53"
                    ],
                    "transactionHash": "0x1458280e5fce2d4606fbb798e8e265560b59f20b3f2a39e10bfcbdd87ddcc4c9",
                    "transactionIndex": "0xb"
                  },
                  {
                    "address": "0x45d047bfcb1055b9dd531ef9605e8f0b0dc285f3",
                    "blockHash": "0x7cf0e721260af530708f840f32b325b3433995acffb38ce128341de2a036fe09",
                    "blockNumber": "0x8540ea4",
                    "data": "0x0000000000000000000000000000000000000000000000000000053505e40dab",
                    "logIndex": "0x2f",
                    "removed": false,
                    "topics": [
                      "0x3d0ce9bfc3ed7d6862dbb28b2dea94561fe714a1b4d019aa8af39730d1ad7c3d",
                      "0x0000000000000000000000000a2854fbbd9b3ef66f17d47284e7f899b9509330"
                    ],
                    "transactionHash": "0x1458280e5fce2d4606fbb798e8e265560b59f20b3f2a39e10bfcbdd87ddcc4c9",
                    "transactionIndex": "0xb"
                  },
                  {
                    "address": "0x9dda6ef3d919c9bc8885d5560999a3640431e8e6",
                    "blockHash": "0x7cf0e721260af530708f840f32b325b3433995acffb38ce128341de2a036fe09",
                    "blockNumber": "0x8540ea4",
                    "data": "0x",
                    "logIndex": "0x30",
                    "removed": false,
                    "topics": [
                      "0xbeee1e6e7fe307ddcf84b0a16137a4430ad5e2480fc4f4a8e250ab56ccd7630d",
                      "0x83203d0886d1c2c42122151c4282225c18a1e1561f04ae69d57528da4bb99db6",
                      "0x00000000000000000000000030e8ccad5a980bdf30447f8c2c48e70989d9d294"
                    ],
                    "transactionHash": "0x1458280e5fce2d4606fbb798e8e265560b59f20b3f2a39e10bfcbdd87ddcc4c9",
                    "transactionIndex": "0xb"
                  }
                ],
                "logsBloom": "0x00002000000000000000000000000000000100080000000000040800004000000000100000000000000010100005000100004000000d08020020400000002000000000000000000000020008000008000000000000400000000000100000000000000001000000400000000000000001000010000000040000000010000000010000000000000000000000000000000000004000002000000000000003000000000000000200000000000040000000000000000000000002000400024060000020000002000004000000000000000000000000000100000000000002000000000024000000000000000000800000000000001000000200000000000000004000",
                "status": "0x1",
                "to": "0x9dda6ef3d919c9bc8885d5560999a3640431e8e6",
                "transactionHash": "0x1458280e5fce2d4606fbb798e8e265560b59f20b3f2a39e10bfcbdd87ddcc4c9",
                "transactionIndex": "0xb",
                "type": "0x2"
              }
            }
          ],
          [
            {
              "op": "add",
              "path": "/postTxBalance",
              "value": "0x10879421cc05e3",
              "note": "TransactionController#updatePostTransactionBalance - Add post transaction balance",
              "timestamp": 1755051778489
            }
          ]
        ],
        "r": "0xa56c86f1ff0ecac8dc776697411e6265927c54485293a06732c0179046e3bb84",
        "s": "0x3a4c0b553ecb8c8ec9766024f0b060836bb5da58a02df740470b300cf285021",
        "v": "0x0",
        "rawTx": "0x02f909100a27830186a0830194c483077250949dda6ef3d919c9bc8885d5560999a3640431e8e680b908a55f57552900000000000000000000000000000000000000000000000000000000000000800000000000000000000000000b2c639c533813f4aa9d7837caf62653d097ff8500000000000000000000000000000000000000000000000000000000002dc6c000000000000000000000000000000000000000000000000000000000000000c00000000000000000000000000000000000000000000000000000000000000004307856320000000000000000000000000000000000000000000000000000000000000000000000000000000000000000000000000000000000000000000007800000000000000000000000000b2c639c533813f4aa9d7837caf62653d097ff85000000000000000000000000000000000000000000000000000000000000000000000000000000000000000000000000000000000000000000000000002dc6c00000000000000000000000000000000000000000000000000002421836f5d94400000000000000000000000000000000000000000000000000000000000001200000000000000000000000000000000000000000000000000000053505e40dab00000000000000000000000045d047bfcb1055b9dd531ef9605e8f0b0dc285f3000000000000000000000000000000000000000000000000000000000000000100000000000000000000000000000000000000000000000000000000000006442213bc0b000000000000000000000000d8014f15a920bf9edfdb87159ee10cadc07fcb530000000000000000000000000b2c639c533813f4aa9d7837caf62653d097ff8500000000000000000000000000000000000000000000000000000000002dc6c0000000000000000000000000d8014f15a920bf9edfdb87159ee10cadc07fcb5300000000000000000000000000000000000000000000000000000000000000a000000000000000000000000000000000000000000000000000000000000005641fff991f0000000000000000000000000a2854fbbd9b3ef66f17d47284e7f899b9509330000000000000000000000000eeeeeeeeeeeeeeeeeeeeeeeeeeeeeeeeeeeeeeee00000000000000000000000000000000000000000000000000024d260838303800000000000000000000000000000000000000000000000000000000000000a0f35fb9991844e5e0601c0c3c0000000000000000000000000000000000000000000000000000000000000000000000000000000000000000000000000000000300000000000000000000000000000000000000000000000000000000000000600000000000000000000000000000000000000000000000000000000000000180000000000000000000000000000000000000000000000000000000000000036000000000000000000000000000000000000000000000000000000000000000e4c1fb425e000000000000000000000000d8014f15a920bf9edfdb87159ee10cadc07fcb530000000000000000000000000b2c639c533813f4aa9d7837caf62653d097ff8500000000000000000000000000000000000000000000000000000000002dc6c0000000000000000000000000000000000000000000000000000000000000000000000000000000000000000000000000000000000000000000000000689bf82600000000000000000000000000000000000000000000000000000000000000c000000000000000000000000000000000000000000000000000000000000000000000000000000000000000000000000000000000000000000000000000000000000000000000000000000000000000000000000000000000000001a438c9c1470000000000000000000000000b2c639c533813f4aa9d7837caf62653d097ff8500000000000000000000000000000000000000000000000000000000000027100000000000000000000000004c4af8dbc524681930a27b2f1af5bcc8062e6fb7000000000000000000000000000000000000000000000000000000000000004400000000000000000000000000000000000000000000000000000000000000a000000000000000000000000000000000000000000000000000000000000000c47dc203820000000000000000000000000b2c639c533813f4aa9d7837caf62653d097ff85000000000000000000000000420000000000000000000000000000000000000600000000000000000000000000000000000000000000000000000000002dc6c00000000000000000000000000000000000000000000000000000000000000000000000000000000000000000d8014f15a920bf9edfdb87159ee10cadc07fcb530000000000000000000000005e01d320e95133d80dd59a2191c95728fa69036d0000000000000000000000000000000000000000000000000000000000000000000000000000000000000000000000000000000000000000000000000000000000000000000000000000000000000000000000000000010438c9c147000000000000000000000000420000000000000000000000000000000000000600000000000000000000000000000000000000000000000000000000000027100000000000000000000000004200000000000000000000000000000000000006000000000000000000000000000000000000000000000000000000000000000400000000000000000000000000000000000000000000000000000000000000a000000000000000000000000000000000000000000000000000000000000000242e1a7d4d000000000000000000000000000000000000000000000000000000000000000000000000000000000000000000000000000000000000000000000000000000000000000000000000000000000000000000000000000000000000000000000000000000000000000000000000000000000000000000000000000000000000000000000000000000000000000000000000bc549fc2fe32597e6f62c46e470628b7df6220542b1392ac3bd25ddfe81ae5da0352a89c015bac05b8d61eda6c66773d836fc42ef3d474c03b69caf86e27cd271bc080a0a56c86f1ff0ecac8dc776697411e6265927c54485293a06732c0179046e3bb84a003a4c0b553ecb8c8ec9766024f0b060836bb5da58a02df740470b300cf285021",
        "gasFeeEstimates": {
          "type": "fee-market",
          "low": {
            "maxFeePerGas": "0x18974",
            "maxPriorityFeePerGas": "0x186a0"
          },
          "medium": {
            "maxFeePerGas": "0x18ade",
            "maxPriorityFeePerGas": "0x186a0"
          },
          "high": {
            "maxFeePerGas": "0x194c4",
            "maxPriorityFeePerGas": "0x186a0"
          }
        },
        "gasFeeEstimatesLoaded": true,
        "hash": "0x1458280e5fce2d4606fbb798e8e265560b59f20b3f2a39e10bfcbdd87ddcc4c9",
        "submittedTime": 1755051774953,
        "preTxBalance": "0xe39c0e2d7de7e",
        "baseFeePerGas": "0x16a",
        "blockTimestamp": "0x689bf701",
        "txReceipt": {
          "blockHash": "0x7cf0e721260af530708f840f32b325b3433995acffb38ce128341de2a036fe09",
          "blockNumber": "0x8540ea4",
          "contractAddress": null,
          "cumulativeGasUsed": "0x54c0a4",
          "effectiveGasPrice": "0x1880a",
          "from": "0x30e8ccad5a980bdf30447f8c2c48e70989d9d294",
          "gasUsed": "0x57b05",
          "l1BaseFeeScalar": "0x146b",
          "l1BlobBaseFee": "0x1",
          "l1BlobBaseFeeScalar": "0xf79c5",
          "l1Fee": "0x5f93281dc",
          "l1GasPrice": "0x23066232",
          "l1GasUsed": "0x20a0",
          "logs": [
            {
              "address": "0x0b2c639c533813f4aa9d7837caf62653d097ff85",
              "blockHash": "0x7cf0e721260af530708f840f32b325b3433995acffb38ce128341de2a036fe09",
              "blockNumber": "0x8540ea4",
              "data": "0x00000000000000000000000000000000000000000000000000000000002dc6c0",
              "logIndex": "0x28",
              "removed": false,
              "topics": [
                "0xddf252ad1be2c89b69c2b068fc378daa952ba7f163c4a11628f55a4df523b3ef",
                "0x00000000000000000000000030e8ccad5a980bdf30447f8c2c48e70989d9d294",
                "0x0000000000000000000000000a2854fbbd9b3ef66f17d47284e7f899b9509330"
              ],
              "transactionHash": "0x1458280e5fce2d4606fbb798e8e265560b59f20b3f2a39e10bfcbdd87ddcc4c9",
              "transactionIndex": "0xb"
            },
            {
              "address": "0x0b2c639c533813f4aa9d7837caf62653d097ff85",
              "blockHash": "0x7cf0e721260af530708f840f32b325b3433995acffb38ce128341de2a036fe09",
              "blockNumber": "0x8540ea4",
              "data": "0x00000000000000000000000000000000000000000000000000000000002dc6c0",
              "logIndex": "0x29",
              "removed": false,
              "topics": [
                "0xddf252ad1be2c89b69c2b068fc378daa952ba7f163c4a11628f55a4df523b3ef",
                "0x0000000000000000000000000a2854fbbd9b3ef66f17d47284e7f899b9509330",
                "0x000000000000000000000000d8014f15a920bf9edfdb87159ee10cadc07fcb53"
              ],
              "transactionHash": "0x1458280e5fce2d4606fbb798e8e265560b59f20b3f2a39e10bfcbdd87ddcc4c9",
              "transactionIndex": "0xb"
            },
            {
              "address": "0x0b2c639c533813f4aa9d7837caf62653d097ff85",
              "blockHash": "0x7cf0e721260af530708f840f32b325b3433995acffb38ce128341de2a036fe09",
              "blockNumber": "0x8540ea4",
              "data": "0x00000000000000000000000000000000000000000000000000000000002dc6c0",
              "logIndex": "0x2a",
              "removed": false,
              "topics": [
                "0xddf252ad1be2c89b69c2b068fc378daa952ba7f163c4a11628f55a4df523b3ef",
                "0x000000000000000000000000d8014f15a920bf9edfdb87159ee10cadc07fcb53",
                "0x0000000000000000000000005520385bfcf07ec87c4c53a7d8d65595dff69fa4"
              ],
              "transactionHash": "0x1458280e5fce2d4606fbb798e8e265560b59f20b3f2a39e10bfcbdd87ddcc4c9",
              "transactionIndex": "0xb"
            },
            {
              "address": "0x4200000000000000000000000000000000000006",
              "blockHash": "0x7cf0e721260af530708f840f32b325b3433995acffb38ce128341de2a036fe09",
              "blockNumber": "0x8540ea4",
              "data": "0x00000000000000000000000000000000000000000000000000025319132d33c1",
              "logIndex": "0x2b",
              "removed": false,
              "topics": [
                "0xddf252ad1be2c89b69c2b068fc378daa952ba7f163c4a11628f55a4df523b3ef",
                "0x0000000000000000000000005520385bfcf07ec87c4c53a7d8d65595dff69fa4",
                "0x000000000000000000000000d8014f15a920bf9edfdb87159ee10cadc07fcb53"
              ],
              "transactionHash": "0x1458280e5fce2d4606fbb798e8e265560b59f20b3f2a39e10bfcbdd87ddcc4c9",
              "transactionIndex": "0xb"
            },
            {
              "address": "0x5520385bfcf07ec87c4c53a7d8d65595dff69fa4",
              "blockHash": "0x7cf0e721260af530708f840f32b325b3433995acffb38ce128341de2a036fe09",
              "blockNumber": "0x8540ea4",
              "data": "0x00000000000000000000000000000000000000000000000000000000002dc6c000000000000000000000000000000000000000000000000000025319132d33c10000000000000000000000004c4af8dbc524681930a27b2f1af5bcc8062e6fb70000000000000000000000005e01d320e95133d80dd59a2191c95728fa69036d00000000000000000000000000000000000000000000000000000000002dc6c000000000000000000000000000000000000000000000000000000000000002ee",
              "logIndex": "0x2c",
              "removed": false,
              "topics": [
                "0x0e8e403c2d36126272b08c75823e988381d9dc47f2f0a9a080d95f891d95c469",
                "0x0000000000000000000000000b2c639c533813f4aa9d7837caf62653d097ff85",
                "0x0000000000000000000000004200000000000000000000000000000000000006",
                "0x000000000000000000000000d8014f15a920bf9edfdb87159ee10cadc07fcb53"
              ],
              "transactionHash": "0x1458280e5fce2d4606fbb798e8e265560b59f20b3f2a39e10bfcbdd87ddcc4c9",
              "transactionIndex": "0xb"
            },
            {
              "address": "0x4c4af8dbc524681930a27b2f1af5bcc8062e6fb7",
              "blockHash": "0x7cf0e721260af530708f840f32b325b3433995acffb38ce128341de2a036fe09",
              "blockNumber": "0x8540ea4",
              "data": "0x000000000000000000000000000000000000000000000000000000000000000000000000000000000000000000000000000000000000000000000000002dc6c000000000000000000000000000000000000000000000000000025319132d33c1000000000000000000000000d8014f15a920bf9edfdb87159ee10cadc07fcb530000000000000000000000005e01d320e95133d80dd59a2191c95728fa69036d",
              "logIndex": "0x2d",
              "removed": false,
              "topics": [
                "0x27c98e911efdd224f4002f6cd831c3ad0d2759ee176f9ee8466d95826af22a1c",
                "0x0000000000000000000000000b2c639c533813f4aa9d7837caf62653d097ff85",
                "0x0000000000000000000000004200000000000000000000000000000000000006",
                "0x000000000000000000000000d8014f15a920bf9edfdb87159ee10cadc07fcb53"
              ],
              "transactionHash": "0x1458280e5fce2d4606fbb798e8e265560b59f20b3f2a39e10bfcbdd87ddcc4c9",
              "transactionIndex": "0xb"
            },
            {
              "address": "0x4200000000000000000000000000000000000006",
              "blockHash": "0x7cf0e721260af530708f840f32b325b3433995acffb38ce128341de2a036fe09",
              "blockNumber": "0x8540ea4",
              "data": "0x00000000000000000000000000000000000000000000000000025319132d33c1",
              "logIndex": "0x2e",
              "removed": false,
              "topics": [
                "0x7fcf532c15f0a6db0bd6d0e038bea71d30d808c7d98cb3bf7268a95bf5081b65",
                "0x000000000000000000000000d8014f15a920bf9edfdb87159ee10cadc07fcb53"
              ],
              "transactionHash": "0x1458280e5fce2d4606fbb798e8e265560b59f20b3f2a39e10bfcbdd87ddcc4c9",
              "transactionIndex": "0xb"
            },
            {
              "address": "0x45d047bfcb1055b9dd531ef9605e8f0b0dc285f3",
              "blockHash": "0x7cf0e721260af530708f840f32b325b3433995acffb38ce128341de2a036fe09",
              "blockNumber": "0x8540ea4",
              "data": "0x0000000000000000000000000000000000000000000000000000053505e40dab",
              "logIndex": "0x2f",
              "removed": false,
              "topics": [
                "0x3d0ce9bfc3ed7d6862dbb28b2dea94561fe714a1b4d019aa8af39730d1ad7c3d",
                "0x0000000000000000000000000a2854fbbd9b3ef66f17d47284e7f899b9509330"
              ],
              "transactionHash": "0x1458280e5fce2d4606fbb798e8e265560b59f20b3f2a39e10bfcbdd87ddcc4c9",
              "transactionIndex": "0xb"
            },
            {
              "address": "0x9dda6ef3d919c9bc8885d5560999a3640431e8e6",
              "blockHash": "0x7cf0e721260af530708f840f32b325b3433995acffb38ce128341de2a036fe09",
              "blockNumber": "0x8540ea4",
              "data": "0x",
              "logIndex": "0x30",
              "removed": false,
              "topics": [
                "0xbeee1e6e7fe307ddcf84b0a16137a4430ad5e2480fc4f4a8e250ab56ccd7630d",
                "0x83203d0886d1c2c42122151c4282225c18a1e1561f04ae69d57528da4bb99db6",
                "0x00000000000000000000000030e8ccad5a980bdf30447f8c2c48e70989d9d294"
              ],
              "transactionHash": "0x1458280e5fce2d4606fbb798e8e265560b59f20b3f2a39e10bfcbdd87ddcc4c9",
              "transactionIndex": "0xb"
            }
          ],
          "logsBloom": "0x00002000000000000000000000000000000100080000000000040800004000000000100000000000000010100005000100004000000d08020020400000002000000000000000000000020008000008000000000000400000000000100000000000000001000000400000000000000001000010000000040000000010000000010000000000000000000000000000000000004000002000000000000003000000000000000200000000000040000000000000000000000002000400024060000020000002000004000000000000000000000000000100000000000002000000000024000000000000000000800000000000001000000200000000000000004000",
          "status": "0x1",
          "to": "0x9dda6ef3d919c9bc8885d5560999a3640431e8e6",
          "transactionHash": "0x1458280e5fce2d4606fbb798e8e265560b59f20b3f2a39e10bfcbdd87ddcc4c9",
          "transactionIndex": "0xb",
          "type": "0x2"
        },
        "postTxBalance": "0x10879421cc05e3"
      }
