{
        "actionId": "1755051744026.3528",
        "chainId": "0xa",
        "id": "59527a10-77ec-11f0-8eb5-29c2b8190c84",
        "networkClientId": "002d2758-f0b6-49fe-b561-ba465d17bbc9",
        "origin": "metamask",
        "status": "confirmed",
        "time": 1755051744305,
        "txParams": {
          "from": "0x30e8ccad5a980bdf30447f8c2c48e70989d9d294",
          "data": "0x5f5755290000000000000000000000000000000000000000000000000000000000000080000000000000000000000000000000000000000000000000000000000000000000000000000000000000000000000000000000000000000000071afd498d000000000000000000000000000000000000000000000000000000000000000000c000000000000000000000000000000000000000000000000000000000000000046f6b783400000000000000000000000000000000000000000000000000000000000000000000000000000000000000000000000000000000000000000000058000000000000000000000000000000000000000000000000000000000000000000000000000000000000000000b2c639c533813f4aa9d7837caf62653d097ff8500000000000000000000000000000000000000000000000000070b12c0446800000000000000000000000000000000000000000000000000000000000087d770000000000000000000000000000000000000000000000000000000000000012000000000000000000000000000000000000000000000000000000fea8948980000000000000000000000000045d047bfcb1055b9dd531ef9605e8f0b0dc285f300000000000000000000000000000000000000000000000000000000000000000000000000000000000000000000000000000000000000000000000000000444b80c2f09000000000000000000000000000000000000000000000000000000000001b91d000000000000000000000000eeeeeeeeeeeeeeeeeeeeeeeeeeeeeeeeeeeeeeee0000000000000000000000000b2c639c533813f4aa9d7837caf62653d097ff8500000000000000000000000000000000000000000000000000070b12c0446800000000000000000000000000000000000000000000000000000000000087d77000000000000000000000000000000000000000000000000000000000689c04ea000000000000000000000000000000000000000000000000000000000000012000000000000000000000000000000000000000000000000000000000000001600000000000000000000000000000000000000000000000000000000000000420000000000000000000000000000000000000000000000000000000000000000100000000000000000000000000000000000000000000000000070b12c0446800000000000000000000000000000000000000000000000000000000000000000100000000000000000000000000000000000000000000000000000000000000200000000000000000000000000000000000000000000000000000000000000001000000000000000000000000000000000000000000000000000000000000002000000000000000000000000000000000000000000000000000000000000000a000000000000000000000000000000000000000000000000000000000000000e000000000000000000000000000000000000000000000000000000000000001200000000000000000000000000000000000000000000000000000000000000160000000000000000000000000420000000000000000000000000000000000000600000000000000000000000000000000000000000000000000000000000000010000000000000000000000003d60c4d60f4b804b258b07dfa79d44b2e01bb40300000000000000000000000000000000000000000000000000000000000000010000000000000000000000003d60c4d60f4b804b258b07dfa79d44b2e01bb4030000000000000000000000000000000000000000000000000000000000000001000000000000000000002710000000000000000000000000000000000000000000000000000000000000000000000000000000000000000000000000000000010000000000000000000000000000000000000000000000000000000000000020000000000000000000000000000000000000000000000000000000000000008000000000000000000000000000000000000000000000000000000000000000000000000000000000000000000b2c639c533813f4aa9d7837caf62653d097ff8500000000000000000000000000000000000000000000000000000000000001f4000000000000000000000000000000000000000000000000000000000000000a000000000000000000000000000000000000000000000000000000000000000000000000000000000000000000000000000000000000000000000000b0afd952d074a485e759a38dd69578c08332de4534b7bf8832e7470b330b13ec63f31882d5b49d803a1930e3a25a942ef5b94bab0d1b823898d250570d4774d81b",
          "gas": "0x59170",
          "gasLimit": "0x59170",
          "nonce": "0x25",
          "to": "0x9dda6ef3d919c9bc8885d5560999a3640431e8e6",
          "value": "0x71afd498d0000",
          "maxFeePerGas": "0x18ade",
          "maxPriorityFeePerGas": "0x186a0",
          "type": "0x2"
        },
        "type": "swap",
        "userEditedGasLimit": false,
        "verifiedOnBlockchain": true,
        "gasLimitNoBuffer": "0x59170",
        "defaultGasEstimates": {
          "gas": "0x59170",
          "maxFeePerGas": "0x20774",
          "maxPriorityFeePerGas": "0x1f950",
          "estimateType": "medium"
        },
        "userFeeLevel": "medium",
        "layer1GasFee": "0x05228e2ae7",
        "sendFlowHistory": [],
        "history": [
          {
            "actionId": "1755051744026.3528",
            "chainId": "0xa",
            "id": "59527a10-77ec-11f0-8eb5-29c2b8190c84",
            "networkClientId": "002d2758-f0b6-49fe-b561-ba465d17bbc9",
            "origin": "metamask",
            "status": "unapproved",
            "time": 1755051744305,
            "txParams": {
              "from": "0x30e8ccad5a980bdf30447f8c2c48e70989d9d294",
              "data": "0x5f5755290000000000000000000000000000000000000000000000000000000000000080000000000000000000000000000000000000000000000000000000000000000000000000000000000000000000000000000000000000000000071afd498d000000000000000000000000000000000000000000000000000000000000000000c000000000000000000000000000000000000000000000000000000000000000046f6b783400000000000000000000000000000000000000000000000000000000000000000000000000000000000000000000000000000000000000000000058000000000000000000000000000000000000000000000000000000000000000000000000000000000000000000b2c639c533813f4aa9d7837caf62653d097ff8500000000000000000000000000000000000000000000000000070b12c0446800000000000000000000000000000000000000000000000000000000000087d770000000000000000000000000000000000000000000000000000000000000012000000000000000000000000000000000000000000000000000000fea8948980000000000000000000000000045d047bfcb1055b9dd531ef9605e8f0b0dc285f300000000000000000000000000000000000000000000000000000000000000000000000000000000000000000000000000000000000000000000000000000444b80c2f09000000000000000000000000000000000000000000000000000000000001b91d000000000000000000000000eeeeeeeeeeeeeeeeeeeeeeeeeeeeeeeeeeeeeeee0000000000000000000000000b2c639c533813f4aa9d7837caf62653d097ff8500000000000000000000000000000000000000000000000000070b12c0446800000000000000000000000000000000000000000000000000000000000087d77000000000000000000000000000000000000000000000000000000000689c04ea000000000000000000000000000000000000000000000000000000000000012000000000000000000000000000000000000000000000000000000000000001600000000000000000000000000000000000000000000000000000000000000420000000000000000000000000000000000000000000000000000000000000000100000000000000000000000000000000000000000000000000070b12c0446800000000000000000000000000000000000000000000000000000000000000000100000000000000000000000000000000000000000000000000000000000000200000000000000000000000000000000000000000000000000000000000000001000000000000000000000000000000000000000000000000000000000000002000000000000000000000000000000000000000000000000000000000000000a000000000000000000000000000000000000000000000000000000000000000e000000000000000000000000000000000000000000000000000000000000001200000000000000000000000000000000000000000000000000000000000000160000000000000000000000000420000000000000000000000000000000000000600000000000000000000000000000000000000000000000000000000000000010000000000000000000000003d60c4d60f4b804b258b07dfa79d44b2e01bb40300000000000000000000000000000000000000000000000000000000000000010000000000000000000000003d60c4d60f4b804b258b07dfa79d44b2e01bb4030000000000000000000000000000000000000000000000000000000000000001000000000000000000002710000000000000000000000000000000000000000000000000000000000000000000000000000000000000000000000000000000010000000000000000000000000000000000000000000000000000000000000020000000000000000000000000000000000000000000000000000000000000008000000000000000000000000000000000000000000000000000000000000000000000000000000000000000000b2c639c533813f4aa9d7837caf62653d097ff8500000000000000000000000000000000000000000000000000000000000001f4000000000000000000000000000000000000000000000000000000000000000a000000000000000000000000000000000000000000000000000000000000000000000000000000000000000000000000000000000000000000000000b0afd952d074a485e759a38dd69578c08332de4534b7bf8832e7470b330b13ec63f31882d5b49d803a1930e3a25a942ef5b94bab0d1b823898d250570d4774d81b",
              "gas": "0x59170",
              "gasLimit": "0x364912",
              "to": "0x9dda6ef3d919c9bc8885d5560999a3640431e8e6",
              "value": "0x71afd498d0000",
              "maxFeePerGas": "0x20774",
              "maxPriorityFeePerGas": "0x1f950",
              "type": "0x2"
            },
            "type": "swap",
            "userEditedGasLimit": false,
            "verifiedOnBlockchain": false,
            "gasLimitNoBuffer": "0x59170",
            "defaultGasEstimates": {
              "gas": "0x59170",
              "maxFeePerGas": "0x20774",
              "maxPriorityFeePerGas": "0x1f950",
              "estimateType": "medium"
            },
            "userFeeLevel": "medium",
            "layer1GasFee": "0x05228e2ae7",
            "sendFlowHistory": []
          },
          [
            {
              "op": "replace",
              "path": "/txParams/maxPriorityFeePerGas",
              "value": "0x186a0",
              "note": "TransactionController#approveTransaction - Transaction approved",
              "timestamp": 1755051744601
            },
            {
              "op": "replace",
              "path": "/txParams/maxFeePerGas",
              "value": "0x18ade"
            },
            {
              "op": "replace",
              "path": "/txParams/gasLimit",
              "value": "0x59170"
            },
            {
              "op": "add",
              "path": "/txParams/nonce",
              "value": "0x25"
            },
            {
              "op": "replace",
              "path": "/status",
              "value": "approved"
            },
            {
              "op": "add",
              "path": "/gasFeeEstimates",
              "value": {
                "type": "fee-market",
                "low": {
                  "maxFeePerGas": "0x18974",
                  "maxPriorityFeePerGas": "0x186a0"
                },
                "medium": {
                  "maxFeePerGas": "0x18ade",
                  "maxPriorityFeePerGas": "0x186a0"
                },
                "high": {
                  "maxFeePerGas": "0x20774",
                  "maxPriorityFeePerGas": "0x1f950"
                }
              }
            },
            {
              "op": "add",
              "path": "/gasFeeEstimatesLoaded",
              "value": true
            }
          ],
          [
            {
              "op": "replace",
              "path": "/status",
              "value": "signed",
              "note": "TransactionController#approveTransaction - RawTransaction added",
              "timestamp": 1755051744615
            },
            {
              "op": "add",
              "path": "/r",
              "value": "0x7004dc3b67a37a2846d9c4f9556b2dbdb9575225cea64477329d766c2a7ca61c"
            },
            {
              "op": "add",
              "path": "/s",
              "value": "0x4cadf08f4ff848e961030b9f4a78be9b02c752e6240faba315b6cf0f29402bbb"
            },
            {
              "op": "add",
              "path": "/v",
              "value": "0x1"
            },
            {
              "op": "add",
              "path": "/rawTx",
              "value": "0x02f907170a25830186a083018ade83059170949dda6ef3d919c9bc8885d5560999a3640431e8e687071afd498d0000b906a55f5755290000000000000000000000000000000000000000000000000000000000000080000000000000000000000000000000000000000000000000000000000000000000000000000000000000000000000000000000000000000000071afd498d000000000000000000000000000000000000000000000000000000000000000000c000000000000000000000000000000000000000000000000000000000000000046f6b783400000000000000000000000000000000000000000000000000000000000000000000000000000000000000000000000000000000000000000000058000000000000000000000000000000000000000000000000000000000000000000000000000000000000000000b2c639c533813f4aa9d7837caf62653d097ff8500000000000000000000000000000000000000000000000000070b12c0446800000000000000000000000000000000000000000000000000000000000087d770000000000000000000000000000000000000000000000000000000000000012000000000000000000000000000000000000000000000000000000fea8948980000000000000000000000000045d047bfcb1055b9dd531ef9605e8f0b0dc285f300000000000000000000000000000000000000000000000000000000000000000000000000000000000000000000000000000000000000000000000000000444b80c2f09000000000000000000000000000000000000000000000000000000000001b91d000000000000000000000000eeeeeeeeeeeeeeeeeeeeeeeeeeeeeeeeeeeeeeee0000000000000000000000000b2c639c533813f4aa9d7837caf62653d097ff8500000000000000000000000000000000000000000000000000070b12c0446800000000000000000000000000000000000000000000000000000000000087d77000000000000000000000000000000000000000000000000000000000689c04ea000000000000000000000000000000000000000000000000000000000000012000000000000000000000000000000000000000000000000000000000000001600000000000000000000000000000000000000000000000000000000000000420000000000000000000000000000000000000000000000000000000000000000100000000000000000000000000000000000000000000000000070b12c0446800000000000000000000000000000000000000000000000000000000000000000100000000000000000000000000000000000000000000000000000000000000200000000000000000000000000000000000000000000000000000000000000001000000000000000000000000000000000000000000000000000000000000002000000000000000000000000000000000000000000000000000000000000000a000000000000000000000000000000000000000000000000000000000000000e000000000000000000000000000000000000000000000000000000000000001200000000000000000000000000000000000000000000000000000000000000160000000000000000000000000420000000000000000000000000000000000000600000000000000000000000000000000000000000000000000000000000000010000000000000000000000003d60c4d60f4b804b258b07dfa79d44b2e01bb40300000000000000000000000000000000000000000000000000000000000000010000000000000000000000003d60c4d60f4b804b258b07dfa79d44b2e01bb4030000000000000000000000000000000000000000000000000000000000000001000000000000000000002710000000000000000000000000000000000000000000000000000000000000000000000000000000000000000000000000000000010000000000000000000000000000000000000000000000000000000000000020000000000000000000000000000000000000000000000000000000000000008000000000000000000000000000000000000000000000000000000000000000000000000000000000000000000b2c639c533813f4aa9d7837caf62653d097ff8500000000000000000000000000000000000000000000000000000000000001f4000000000000000000000000000000000000000000000000000000000000000a000000000000000000000000000000000000000000000000000000000000000000000000000000000000000000000000000000000000000000000000b0afd952d074a485e759a38dd69578c08332de4534b7bf8832e7470b330b13ec63f31882d5b49d803a1930e3a25a942ef5b94bab0d1b823898d250570d4774d81bc001a07004dc3b67a37a2846d9c4f9556b2dbdb9575225cea64477329d766c2a7ca61ca04cadf08f4ff848e961030b9f4a78be9b02c752e6240faba315b6cf0f29402bbb"
            }
          ],
          [
            {
              "op": "replace",
              "path": "/status",
              "value": "submitted",
              "note": "TransactionController#approveTransaction - Transaction submitted",
              "timestamp": 1755051744898
            },
            {
              "op": "add",
              "path": "/hash",
              "value": "0xcf3019defc220262a93318a933bedfd9657ab7682ebee1a3ecc0f5217b913c59"
            },
            {
              "op": "add",
              "path": "/submittedTime",
              "value": 1755051744898
            },
            {
              "op": "add",
              "path": "/preTxBalance",
              "value": "0x1554c96d491c70"
            }
          ],
          [
            {
              "op": "replace",
              "path": "/verifiedOnBlockchain",
              "value": true,
              "note": "PendingTransactionTracker:#onTransactionConfirmed - Transaction confirmed",
              "timestamp": 1755051747976
            },
            {
              "op": "replace",
              "path": "/status",
              "value": "confirmed"
            },
            {
              "op": "add",
              "path": "/baseFeePerGas",
              "value": "0x16a"
            },
            {
              "op": "add",
              "path": "/blockTimestamp",
              "value": "0x689bf6e3"
            },
            {
              "op": "add",
              "path": "/txReceipt",
              "value": {
                "blockHash": "0x394e458ac42b15a3b0da91ec564cfdad83ad76ca493d82091fb762ed75cb76ed",
                "blockNumber": "0x8540e95",
                "contractAddress": null,
                "cumulativeGasUsed": "0x4e0621",
                "effectiveGasPrice": "0x1880a",
                "from": "0x30e8ccad5a980bdf30447f8c2c48e70989d9d294",
                "gasUsed": "0x4028b",
                "l1BaseFeeScalar": "0x146b",
                "l1BlobBaseFee": "0x1",
                "l1BlobBaseFeeScalar": "0xf79c5",
                "l1Fee": "0x51cd74c84",
                "l1GasPrice": "0x28d74f5f",
                "l1GasUsed": "0x17f3",
                "logs": [
                  {
                    "address": "0x86f752f1f662f39bfbcbef95ee56b6c20d178969",
                    "blockHash": "0x394e458ac42b15a3b0da91ec564cfdad83ad76ca493d82091fb762ed75cb76ed",
                    "blockNumber": "0x8540e95",
                    "data": "0x000000000000000000000000000000000000000000000000000000000001b91d",
                    "logIndex": "0x15",
                    "removed": false,
                    "topics": [
                      "0x7724394874fdd8ad13292ec739b441f85c6559f10dc4141b8d4c0fa4cbf55bdb"
                    ],
                    "transactionHash": "0xcf3019defc220262a93318a933bedfd9657ab7682ebee1a3ecc0f5217b913c59",
                    "transactionIndex": "0x9"
                  },
                  {
                    "address": "0x4200000000000000000000000000000000000006",
                    "blockHash": "0x394e458ac42b15a3b0da91ec564cfdad83ad76ca493d82091fb762ed75cb76ed",
                    "blockNumber": "0x8540e95",
                    "data": "0x00000000000000000000000000000000000000000000000000070b12c0446800",
                    "logIndex": "0x16",
                    "removed": false,
                    "topics": [
                      "0xe1fffcc4923d04b559f4d29a8bfc6cda04eb5b0d3c460751c2402c5c5cc9109c",
                      "0x00000000000000000000000086f752f1f662f39bfbcbef95ee56b6c20d178969"
                    ],
                    "transactionHash": "0xcf3019defc220262a93318a933bedfd9657ab7682ebee1a3ecc0f5217b913c59",
                    "transactionIndex": "0x9"
                  },
                  {
                    "address": "0x4200000000000000000000000000000000000006",
                    "blockHash": "0x394e458ac42b15a3b0da91ec564cfdad83ad76ca493d82091fb762ed75cb76ed",
                    "blockNumber": "0x8540e95",
                    "data": "0x00000000000000000000000000000000000000000000000000070b12c0446800",
                    "logIndex": "0x17",
                    "removed": false,
                    "topics": [
                      "0xddf252ad1be2c89b69c2b068fc378daa952ba7f163c4a11628f55a4df523b3ef",
                      "0x00000000000000000000000086f752f1f662f39bfbcbef95ee56b6c20d178969",
                      "0x0000000000000000000000003d60c4d60f4b804b258b07dfa79d44b2e01bb403"
                    ],
                    "transactionHash": "0xcf3019defc220262a93318a933bedfd9657ab7682ebee1a3ecc0f5217b913c59",
                    "transactionIndex": "0x9"
                  },
                  {
                    "address": "0x3d60c4d60f4b804b258b07dfa79d44b2e01bb403",
                    "blockHash": "0x394e458ac42b15a3b0da91ec564cfdad83ad76ca493d82091fb762ed75cb76ed",
                    "blockNumber": "0x8540e95",
                    "data": "0x000000000000000000000000420000000000000000000000000000000000000600000000000000000000000000000000000000000000000000070b12c0446800",
                    "logIndex": "0x18",
                    "removed": false,
                    "topics": [
                      "0x88a5966d370b9919b20f3e2c13ff65706f196a4e32cc2c12bf57088f88525874"
                    ],
                    "transactionHash": "0xcf3019defc220262a93318a933bedfd9657ab7682ebee1a3ecc0f5217b913c59",
                    "transactionIndex": "0x9"
                  },
                  {
                    "address": "0x4200000000000000000000000000000000000006",
                    "blockHash": "0x394e458ac42b15a3b0da91ec564cfdad83ad76ca493d82091fb762ed75cb76ed",
                    "blockNumber": "0x8540e95",
                    "data": "0x00000000000000000000000000000000000000000000000000070b12c0446800",
                    "logIndex": "0x19",
                    "removed": false,
                    "topics": [
                      "0x7fcf532c15f0a6db0bd6d0e038bea71d30d808c7d98cb3bf7268a95bf5081b65",
                      "0x0000000000000000000000003d60c4d60f4b804b258b07dfa79d44b2e01bb403"
                    ],
                    "transactionHash": "0xcf3019defc220262a93318a933bedfd9657ab7682ebee1a3ecc0f5217b913c59",
                    "transactionIndex": "0x9"
                  },
                  {
                    "address": "0x9a13f98cb987694c9f086b1f5eb990eea8264ec3",
                    "blockHash": "0x394e458ac42b15a3b0da91ec564cfdad83ad76ca493d82091fb762ed75cb76ed",
                    "blockNumber": "0x8540e95",
                    "data": "0xfffffffffffffffffffffffffffffffffffffffffffffffffff8f4ed3fbb980000000000000000000000000000000000000000000000000000000000008a9d24000000000000000000000000000000000000000000046fe8c2de15309d31b8170000000000000000000000000000000000000000000000000004cee9d154949efffffffffffffffffffffffffffffffffffffffffffffffffffffffffffd11ef00000000000000000000000000000000000000000000000000000000000001f4",
                    "logIndex": "0x1a",
                    "removed": false,
                    "topics": [
                      "0x40e9cecb9f5f1f1c5b9c97dec2917b7ee92e57ba5563708daca94dd84ad7112f",
                      "0x51bf4cc5b8d9f7f759e41f572fe2a25bc2aeb42432bf12544a350595e5c8bb43",
                      "0x0000000000000000000000003d60c4d60f4b804b258b07dfa79d44b2e01bb403"
                    ],
                    "transactionHash": "0xcf3019defc220262a93318a933bedfd9657ab7682ebee1a3ecc0f5217b913c59",
                    "transactionIndex": "0x9"
                  },
                  {
                    "address": "0x0b2c639c533813f4aa9d7837caf62653d097ff85",
                    "blockHash": "0x394e458ac42b15a3b0da91ec564cfdad83ad76ca493d82091fb762ed75cb76ed",
                    "blockNumber": "0x8540e95",
                    "data": "0x00000000000000000000000000000000000000000000000000000000008a9d24",
                    "logIndex": "0x1b",
                    "removed": false,
                    "topics": [
                      "0xddf252ad1be2c89b69c2b068fc378daa952ba7f163c4a11628f55a4df523b3ef",
                      "0x0000000000000000000000009a13f98cb987694c9f086b1f5eb990eea8264ec3",
                      "0x0000000000000000000000000a2854fbbd9b3ef66f17d47284e7f899b9509330"
                    ],
                    "transactionHash": "0xcf3019defc220262a93318a933bedfd9657ab7682ebee1a3ecc0f5217b913c59",
                    "transactionIndex": "0x9"
                  },
                  {
                    "address": "0x86f752f1f662f39bfbcbef95ee56b6c20d178969",
                    "blockHash": "0x394e458ac42b15a3b0da91ec564cfdad83ad76ca493d82091fb762ed75cb76ed",
                    "blockNumber": "0x8540e95",
                    "data": "0x000000000000000000000000eeeeeeeeeeeeeeeeeeeeeeeeeeeeeeeeeeeeeeee0000000000000000000000000b2c639c533813f4aa9d7837caf62653d097ff8500000000000000000000000030e8ccad5a980bdf30447f8c2c48e70989d9d29400000000000000000000000000000000000000000000000000070b12c044680000000000000000000000000000000000000000000000000000000000008a9d24",
                    "logIndex": "0x1c",
                    "removed": false,
                    "topics": [
                      "0x1bb43f2da90e35f7b0cf38521ca95a49e68eb42fac49924930a5bd73cdf7576c"
                    ],
                    "transactionHash": "0xcf3019defc220262a93318a933bedfd9657ab7682ebee1a3ecc0f5217b913c59",
                    "transactionIndex": "0x9"
                  },
                  {
                    "address": "0x45d047bfcb1055b9dd531ef9605e8f0b0dc285f3",
                    "blockHash": "0x394e458ac42b15a3b0da91ec564cfdad83ad76ca493d82091fb762ed75cb76ed",
                    "blockNumber": "0x8540e95",
                    "data": "0x00000000000000000000000000000000000000000000000000000fea89489800",
                    "logIndex": "0x1d",
                    "removed": false,
                    "topics": [
                      "0x3d0ce9bfc3ed7d6862dbb28b2dea94561fe714a1b4d019aa8af39730d1ad7c3d",
                      "0x0000000000000000000000000a2854fbbd9b3ef66f17d47284e7f899b9509330"
                    ],
                    "transactionHash": "0xcf3019defc220262a93318a933bedfd9657ab7682ebee1a3ecc0f5217b913c59",
                    "transactionIndex": "0x9"
                  },
                  {
                    "address": "0x0b2c639c533813f4aa9d7837caf62653d097ff85",
                    "blockHash": "0x394e458ac42b15a3b0da91ec564cfdad83ad76ca493d82091fb762ed75cb76ed",
                    "blockNumber": "0x8540e95",
                    "data": "0x00000000000000000000000000000000000000000000000000000000008a9d24",
                    "logIndex": "0x1e",
                    "removed": false,
                    "topics": [
                      "0xddf252ad1be2c89b69c2b068fc378daa952ba7f163c4a11628f55a4df523b3ef",
                      "0x0000000000000000000000000a2854fbbd9b3ef66f17d47284e7f899b9509330",
                      "0x00000000000000000000000030e8ccad5a980bdf30447f8c2c48e70989d9d294"
                    ],
                    "transactionHash": "0xcf3019defc220262a93318a933bedfd9657ab7682ebee1a3ecc0f5217b913c59",
                    "transactionIndex": "0x9"
                  },
                  {
                    "address": "0x9dda6ef3d919c9bc8885d5560999a3640431e8e6",
                    "blockHash": "0x394e458ac42b15a3b0da91ec564cfdad83ad76ca493d82091fb762ed75cb76ed",
                    "blockNumber": "0x8540e95",
                    "data": "0x",
                    "logIndex": "0x1f",
                    "removed": false,
                    "topics": [
                      "0xbeee1e6e7fe307ddcf84b0a16137a4430ad5e2480fc4f4a8e250ab56ccd7630d",
                      "0x534c77e3ef197114acc9cfd7a62047c2b282bcd9aeea6d41eb3ea030cd0d8dde",
                      "0x00000000000000000000000030e8ccad5a980bdf30447f8c2c48e70989d9d294"
                    ],
                    "transactionHash": "0xcf3019defc220262a93318a933bedfd9657ab7682ebee1a3ecc0f5217b913c59",
                    "transactionIndex": "0x9"
                  }
                ],
                "logsBloom": "0x00026000000000000000000000000000100000080000010000040800000000000000008000000000020010102000000000008000040908000000002000000000000000000000000000020008800000000000008000400020000200008000000000000000200000400000000000000001000000000000040200000010000010000100000000000000000000000000000000000001002000000000001003000010000000000000000000000040000000000000000000000002800400020000000001004002000002000000000000000080000000020100000000000002000000000024000000000000044000800080000000002000000000400000000000000000",
                "status": "0x1",
                "to": "0x9dda6ef3d919c9bc8885d5560999a3640431e8e6",
                "transactionHash": "0xcf3019defc220262a93318a933bedfd9657ab7682ebee1a3ecc0f5217b913c59",
                "transactionIndex": "0x9",
                "type": "0x2"
              }
            }
          ],
          [
            {
              "op": "add",
              "path": "/postTxBalance",
              "value": "0xe39c0e2d7de7e",
              "note": "TransactionController#updatePostTransactionBalance - Add post transaction balance",
              "timestamp": 1755051748124
            }
          ]
        ],
        "gasFeeEstimates": {
          "type": "fee-market",
          "low": {
            "maxFeePerGas": "0x18974",
            "maxPriorityFeePerGas": "0x186a0"
          },
          "medium": {
            "maxFeePerGas": "0x18ade",
            "maxPriorityFeePerGas": "0x186a0"
          },
          "high": {
            "maxFeePerGas": "0x20774",
            "maxPriorityFeePerGas": "0x1f950"
          }
        },
        "gasFeeEstimatesLoaded": true,
        "r": "0x7004dc3b67a37a2846d9c4f9556b2dbdb9575225cea64477329d766c2a7ca61c",
        "s": "0x4cadf08f4ff848e961030b9f4a78be9b02c752e6240faba315b6cf0f29402bbb",
        "v": "0x1",
        "rawTx": "0x02f907170a25830186a083018ade83059170949dda6ef3d919c9bc8885d5560999a3640431e8e687071afd498d0000b906a55f5755290000000000000000000000000000000000000000000000000000000000000080000000000000000000000000000000000000000000000000000000000000000000000000000000000000000000000000000000000000000000071afd498d000000000000000000000000000000000000000000000000000000000000000000c000000000000000000000000000000000000000000000000000000000000000046f6b783400000000000000000000000000000000000000000000000000000000000000000000000000000000000000000000000000000000000000000000058000000000000000000000000000000000000000000000000000000000000000000000000000000000000000000b2c639c533813f4aa9d7837caf62653d097ff8500000000000000000000000000000000000000000000000000070b12c0446800000000000000000000000000000000000000000000000000000000000087d770000000000000000000000000000000000000000000000000000000000000012000000000000000000000000000000000000000000000000000000fea8948980000000000000000000000000045d047bfcb1055b9dd531ef9605e8f0b0dc285f300000000000000000000000000000000000000000000000000000000000000000000000000000000000000000000000000000000000000000000000000000444b80c2f09000000000000000000000000000000000000000000000000000000000001b91d000000000000000000000000eeeeeeeeeeeeeeeeeeeeeeeeeeeeeeeeeeeeeeee0000000000000000000000000b2c639c533813f4aa9d7837caf62653d097ff8500000000000000000000000000000000000000000000000000070b12c0446800000000000000000000000000000000000000000000000000000000000087d77000000000000000000000000000000000000000000000000000000000689c04ea000000000000000000000000000000000000000000000000000000000000012000000000000000000000000000000000000000000000000000000000000001600000000000000000000000000000000000000000000000000000000000000420000000000000000000000000000000000000000000000000000000000000000100000000000000000000000000000000000000000000000000070b12c0446800000000000000000000000000000000000000000000000000000000000000000100000000000000000000000000000000000000000000000000000000000000200000000000000000000000000000000000000000000000000000000000000001000000000000000000000000000000000000000000000000000000000000002000000000000000000000000000000000000000000000000000000000000000a000000000000000000000000000000000000000000000000000000000000000e000000000000000000000000000000000000000000000000000000000000001200000000000000000000000000000000000000000000000000000000000000160000000000000000000000000420000000000000000000000000000000000000600000000000000000000000000000000000000000000000000000000000000010000000000000000000000003d60c4d60f4b804b258b07dfa79d44b2e01bb40300000000000000000000000000000000000000000000000000000000000000010000000000000000000000003d60c4d60f4b804b258b07dfa79d44b2e01bb4030000000000000000000000000000000000000000000000000000000000000001000000000000000000002710000000000000000000000000000000000000000000000000000000000000000000000000000000000000000000000000000000010000000000000000000000000000000000000000000000000000000000000020000000000000000000000000000000000000000000000000000000000000008000000000000000000000000000000000000000000000000000000000000000000000000000000000000000000b2c639c533813f4aa9d7837caf62653d097ff8500000000000000000000000000000000000000000000000000000000000001f4000000000000000000000000000000000000000000000000000000000000000a000000000000000000000000000000000000000000000000000000000000000000000000000000000000000000000000000000000000000000000000b0afd952d074a485e759a38dd69578c08332de4534b7bf8832e7470b330b13ec63f31882d5b49d803a1930e3a25a942ef5b94bab0d1b823898d250570d4774d81bc001a07004dc3b67a37a2846d9c4f9556b2dbdb9575225cea64477329d766c2a7ca61ca04cadf08f4ff848e961030b9f4a78be9b02c752e6240faba315b6cf0f29402bbb",
        "hash": "0xcf3019defc220262a93318a933bedfd9657ab7682ebee1a3ecc0f5217b913c59",
        "submittedTime": 1755051744898,
        "preTxBalance": "0x1554c96d491c70",
        "baseFeePerGas": "0x16a",
        "blockTimestamp": "0x689bf6e3",
        "txReceipt": {
          "blockHash": "0x394e458ac42b15a3b0da91ec564cfdad83ad76ca493d82091fb762ed75cb76ed",
          "blockNumber": "0x8540e95",
          "contractAddress": null,
          "cumulativeGasUsed": "0x4e0621",
          "effectiveGasPrice": "0x1880a",
          "from": "0x30e8ccad5a980bdf30447f8c2c48e70989d9d294",
          "gasUsed": "0x4028b",
          "l1BaseFeeScalar": "0x146b",
          "l1BlobBaseFee": "0x1",
          "l1BlobBaseFeeScalar": "0xf79c5",
          "l1Fee": "0x51cd74c84",
          "l1GasPrice": "0x28d74f5f",
          "l1GasUsed": "0x17f3",
          "logs": [
            {
              "address": "0x86f752f1f662f39bfbcbef95ee56b6c20d178969",
              "blockHash": "0x394e458ac42b15a3b0da91ec564cfdad83ad76ca493d82091fb762ed75cb76ed",
              "blockNumber": "0x8540e95",
              "data": "0x000000000000000000000000000000000000000000000000000000000001b91d",
              "logIndex": "0x15",
              "removed": false,
              "topics": [
                "0x7724394874fdd8ad13292ec739b441f85c6559f10dc4141b8d4c0fa4cbf55bdb"
              ],
              "transactionHash": "0xcf3019defc220262a93318a933bedfd9657ab7682ebee1a3ecc0f5217b913c59",
              "transactionIndex": "0x9"
            },
            {
              "address": "0x4200000000000000000000000000000000000006",
              "blockHash": "0x394e458ac42b15a3b0da91ec564cfdad83ad76ca493d82091fb762ed75cb76ed",
              "blockNumber": "0x8540e95",
              "data": "0x00000000000000000000000000000000000000000000000000070b12c0446800",
              "logIndex": "0x16",
              "removed": false,
              "topics": [
                "0xe1fffcc4923d04b559f4d29a8bfc6cda04eb5b0d3c460751c2402c5c5cc9109c",
                "0x00000000000000000000000086f752f1f662f39bfbcbef95ee56b6c20d178969"
              ],
              "transactionHash": "0xcf3019defc220262a93318a933bedfd9657ab7682ebee1a3ecc0f5217b913c59",
              "transactionIndex": "0x9"
            },
            {
              "address": "0x4200000000000000000000000000000000000006",
              "blockHash": "0x394e458ac42b15a3b0da91ec564cfdad83ad76ca493d82091fb762ed75cb76ed",
              "blockNumber": "0x8540e95",
              "data": "0x00000000000000000000000000000000000000000000000000070b12c0446800",
              "logIndex": "0x17",
              "removed": false,
              "topics": [
                "0xddf252ad1be2c89b69c2b068fc378daa952ba7f163c4a11628f55a4df523b3ef",
                "0x00000000000000000000000086f752f1f662f39bfbcbef95ee56b6c20d178969",
                "0x0000000000000000000000003d60c4d60f4b804b258b07dfa79d44b2e01bb403"
              ],
              "transactionHash": "0xcf3019defc220262a93318a933bedfd9657ab7682ebee1a3ecc0f5217b913c59",
              "transactionIndex": "0x9"
            },
            {
              "address": "0x3d60c4d60f4b804b258b07dfa79d44b2e01bb403",
              "blockHash": "0x394e458ac42b15a3b0da91ec564cfdad83ad76ca493d82091fb762ed75cb76ed",
              "blockNumber": "0x8540e95",
              "data": "0x000000000000000000000000420000000000000000000000000000000000000600000000000000000000000000000000000000000000000000070b12c0446800",
              "logIndex": "0x18",
              "removed": false,
              "topics": [
                "0x88a5966d370b9919b20f3e2c13ff65706f196a4e32cc2c12bf57088f88525874"
              ],
              "transactionHash": "0xcf3019defc220262a93318a933bedfd9657ab7682ebee1a3ecc0f5217b913c59",
              "transactionIndex": "0x9"
            },
            {
              "address": "0x4200000000000000000000000000000000000006",
              "blockHash": "0x394e458ac42b15a3b0da91ec564cfdad83ad76ca493d82091fb762ed75cb76ed",
              "blockNumber": "0x8540e95",
              "data": "0x00000000000000000000000000000000000000000000000000070b12c0446800",
              "logIndex": "0x19",
              "removed": false,
              "topics": [
                "0x7fcf532c15f0a6db0bd6d0e038bea71d30d808c7d98cb3bf7268a95bf5081b65",
                "0x0000000000000000000000003d60c4d60f4b804b258b07dfa79d44b2e01bb403"
              ],
              "transactionHash": "0xcf3019defc220262a93318a933bedfd9657ab7682ebee1a3ecc0f5217b913c59",
              "transactionIndex": "0x9"
            },
            {
              "address": "0x9a13f98cb987694c9f086b1f5eb990eea8264ec3",
              "blockHash": "0x394e458ac42b15a3b0da91ec564cfdad83ad76ca493d82091fb762ed75cb76ed",
              "blockNumber": "0x8540e95",
              "data": "0xfffffffffffffffffffffffffffffffffffffffffffffffffff8f4ed3fbb980000000000000000000000000000000000000000000000000000000000008a9d24000000000000000000000000000000000000000000046fe8c2de15309d31b8170000000000000000000000000000000000000000000000000004cee9d154949efffffffffffffffffffffffffffffffffffffffffffffffffffffffffffd11ef00000000000000000000000000000000000000000000000000000000000001f4",
              "logIndex": "0x1a",
              "removed": false,
              "topics": [
                "0x40e9cecb9f5f1f1c5b9c97dec2917b7ee92e57ba5563708daca94dd84ad7112f",
                "0x51bf4cc5b8d9f7f759e41f572fe2a25bc2aeb42432bf12544a350595e5c8bb43",
                "0x0000000000000000000000003d60c4d60f4b804b258b07dfa79d44b2e01bb403"
              ],
              "transactionHash": "0xcf3019defc220262a93318a933bedfd9657ab7682ebee1a3ecc0f5217b913c59",
              "transactionIndex": "0x9"
            },
            {
              "address": "0x0b2c639c533813f4aa9d7837caf62653d097ff85",
              "blockHash": "0x394e458ac42b15a3b0da91ec564cfdad83ad76ca493d82091fb762ed75cb76ed",
              "blockNumber": "0x8540e95",
              "data": "0x00000000000000000000000000000000000000000000000000000000008a9d24",
              "logIndex": "0x1b",
              "removed": false,
              "topics": [
                "0xddf252ad1be2c89b69c2b068fc378daa952ba7f163c4a11628f55a4df523b3ef",
                "0x0000000000000000000000009a13f98cb987694c9f086b1f5eb990eea8264ec3",
                "0x0000000000000000000000000a2854fbbd9b3ef66f17d47284e7f899b9509330"
              ],
              "transactionHash": "0xcf3019defc220262a93318a933bedfd9657ab7682ebee1a3ecc0f5217b913c59",
              "transactionIndex": "0x9"
            },
            {
              "address": "0x86f752f1f662f39bfbcbef95ee56b6c20d178969",
              "blockHash": "0x394e458ac42b15a3b0da91ec564cfdad83ad76ca493d82091fb762ed75cb76ed",
              "blockNumber": "0x8540e95",
              "data": "0x000000000000000000000000eeeeeeeeeeeeeeeeeeeeeeeeeeeeeeeeeeeeeeee0000000000000000000000000b2c639c533813f4aa9d7837caf62653d097ff8500000000000000000000000030e8ccad5a980bdf30447f8c2c48e70989d9d29400000000000000000000000000000000000000000000000000070b12c044680000000000000000000000000000000000000000000000000000000000008a9d24",
              "logIndex": "0x1c",
              "removed": false,
              "topics": [
                "0x1bb43f2da90e35f7b0cf38521ca95a49e68eb42fac49924930a5bd73cdf7576c"
              ],
              "transactionHash": "0xcf3019defc220262a93318a933bedfd9657ab7682ebee1a3ecc0f5217b913c59",
              "transactionIndex": "0x9"
            },
            {
              "address": "0x45d047bfcb1055b9dd531ef9605e8f0b0dc285f3",
              "blockHash": "0x394e458ac42b15a3b0da91ec564cfdad83ad76ca493d82091fb762ed75cb76ed",
              "blockNumber": "0x8540e95",
              "data": "0x00000000000000000000000000000000000000000000000000000fea89489800",
              "logIndex": "0x1d",
              "removed": false,
              "topics": [
                "0x3d0ce9bfc3ed7d6862dbb28b2dea94561fe714a1b4d019aa8af39730d1ad7c3d",
                "0x0000000000000000000000000a2854fbbd9b3ef66f17d47284e7f899b9509330"
              ],
              "transactionHash": "0xcf3019defc220262a93318a933bedfd9657ab7682ebee1a3ecc0f5217b913c59",
              "transactionIndex": "0x9"
            },
            {
              "address": "0x0b2c639c533813f4aa9d7837caf62653d097ff85",
              "blockHash": "0x394e458ac42b15a3b0da91ec564cfdad83ad76ca493d82091fb762ed75cb76ed",
              "blockNumber": "0x8540e95",
              "data": "0x00000000000000000000000000000000000000000000000000000000008a9d24",
              "logIndex": "0x1e",
              "removed": false,
              "topics": [
                "0xddf252ad1be2c89b69c2b068fc378daa952ba7f163c4a11628f55a4df523b3ef",
                "0x0000000000000000000000000a2854fbbd9b3ef66f17d47284e7f899b9509330",
                "0x00000000000000000000000030e8ccad5a980bdf30447f8c2c48e70989d9d294"
              ],
              "transactionHash": "0xcf3019defc220262a93318a933bedfd9657ab7682ebee1a3ecc0f5217b913c59",
              "transactionIndex": "0x9"
            },
            {
              "address": "0x9dda6ef3d919c9bc8885d5560999a3640431e8e6",
              "blockHash": "0x394e458ac42b15a3b0da91ec564cfdad83ad76ca493d82091fb762ed75cb76ed",
              "blockNumber": "0x8540e95",
              "data": "0x",
              "logIndex": "0x1f",
              "removed": false,
              "topics": [
                "0xbeee1e6e7fe307ddcf84b0a16137a4430ad5e2480fc4f4a8e250ab56ccd7630d",
                "0x534c77e3ef197114acc9cfd7a62047c2b282bcd9aeea6d41eb3ea030cd0d8dde",
                "0x00000000000000000000000030e8ccad5a980bdf30447f8c2c48e70989d9d294"
              ],
              "transactionHash": "0xcf3019defc220262a93318a933bedfd9657ab7682ebee1a3ecc0f5217b913c59",
              "transactionIndex": "0x9"
            }
          ],
          "logsBloom": "0x00026000000000000000000000000000100000080000010000040800000000000000008000000000020010102000000000008000040908000000002000000000000000000000000000020008800000000000008000400020000200008000000000000000200000400000000000000001000000000000040200000010000010000100000000000000000000000000000000000001002000000000001003000010000000000000000000000040000000000000000000000002800400020000000001004002000002000000000000000080000000020100000000000002000000000024000000000000044000800080000000002000000000400000000000000000",
          "status": "0x1",
          "to": "0x9dda6ef3d919c9bc8885d5560999a3640431e8e6",
          "transactionHash": "0xcf3019defc220262a93318a933bedfd9657ab7682ebee1a3ecc0f5217b913c59",
          "transactionIndex": "0x9",
          "type": "0x2"
        },
        "postTxBalance": "0xe39c0e2d7de7e"
      }
